{
    "_format": "hh-sol-artifact-1",
    "contractName": "AqueductToken",
    "sourceName": "contracts/tokens/AqueductToken.sol",
    "abi": [
        {
            "inputs": [
                {
                    "internalType": "contract ISuperfluid",
                    "name": "host",
                    "type": "address"
                },
                {
                    "internalType": "contract IPoolFactory",
                    "name": "poolFactory",
                    "type": "address"
                }
            ],
            "stateMutability": "nonpayable",
            "type": "constructor"
        },
        {
            "anonymous": false,
            "inputs": [
                {
                    "indexed": true,
                    "internalType": "address",
                    "name": "agreementClass",
                    "type": "address"
                },
                {
                    "indexed": false,
                    "internalType": "bytes32",
                    "name": "id",
                    "type": "bytes32"
                },
                {
                    "indexed": false,
                    "internalType": "bytes32[]",
                    "name": "data",
                    "type": "bytes32[]"
                }
            ],
            "name": "AgreementCreated",
            "type": "event"
        },
        {
            "anonymous": false,
            "inputs": [
                {
                    "indexed": true,
                    "internalType": "address",
                    "name": "agreementClass",
                    "type": "address"
                },
                {
                    "indexed": false,
                    "internalType": "bytes32",
                    "name": "id",
                    "type": "bytes32"
                },
                {
                    "indexed": true,
                    "internalType": "address",
                    "name": "penaltyAccount",
                    "type": "address"
                },
                {
                    "indexed": true,
                    "internalType": "address",
                    "name": "rewardAccount",
                    "type": "address"
                },
                {
                    "indexed": false,
                    "internalType": "uint256",
                    "name": "rewardAmount",
                    "type": "uint256"
                }
            ],
            "name": "AgreementLiquidated",
            "type": "event"
        },
        {
            "anonymous": false,
            "inputs": [
                {
                    "indexed": false,
                    "internalType": "address",
                    "name": "liquidatorAccount",
                    "type": "address"
                },
                {
                    "indexed": true,
                    "internalType": "address",
                    "name": "agreementClass",
                    "type": "address"
                },
                {
                    "indexed": false,
                    "internalType": "bytes32",
                    "name": "id",
                    "type": "bytes32"
                },
                {
                    "indexed": true,
                    "internalType": "address",
                    "name": "penaltyAccount",
                    "type": "address"
                },
                {
                    "indexed": true,
                    "internalType": "address",
                    "name": "bondAccount",
                    "type": "address"
                },
                {
                    "indexed": false,
                    "internalType": "uint256",
                    "name": "rewardAmount",
                    "type": "uint256"
                },
                {
                    "indexed": false,
                    "internalType": "uint256",
                    "name": "bailoutAmount",
                    "type": "uint256"
                }
            ],
            "name": "AgreementLiquidatedBy",
            "type": "event"
        },
        {
            "anonymous": false,
            "inputs": [
                {
                    "indexed": true,
                    "internalType": "address",
                    "name": "agreementClass",
                    "type": "address"
                },
                {
                    "indexed": false,
                    "internalType": "bytes32",
                    "name": "id",
                    "type": "bytes32"
                },
                {
                    "indexed": true,
                    "internalType": "address",
                    "name": "liquidatorAccount",
                    "type": "address"
                },
                {
                    "indexed": true,
                    "internalType": "address",
                    "name": "targetAccount",
                    "type": "address"
                },
                {
                    "indexed": false,
                    "internalType": "address",
                    "name": "rewardAmountReceiver",
                    "type": "address"
                },
                {
                    "indexed": false,
                    "internalType": "uint256",
                    "name": "rewardAmount",
                    "type": "uint256"
                },
                {
                    "indexed": false,
                    "internalType": "int256",
                    "name": "targetAccountBalanceDelta",
                    "type": "int256"
                },
                {
                    "indexed": false,
                    "internalType": "bytes",
                    "name": "liquidationTypeData",
                    "type": "bytes"
                }
            ],
            "name": "AgreementLiquidatedV2",
            "type": "event"
        },
        {
            "anonymous": false,
            "inputs": [
                {
                    "indexed": true,
                    "internalType": "address",
                    "name": "agreementClass",
                    "type": "address"
                },
                {
                    "indexed": true,
                    "internalType": "address",
                    "name": "account",
                    "type": "address"
                },
                {
                    "indexed": false,
                    "internalType": "uint256",
                    "name": "slotId",
                    "type": "uint256"
                }
            ],
            "name": "AgreementStateUpdated",
            "type": "event"
        },
        {
            "anonymous": false,
            "inputs": [
                {
                    "indexed": true,
                    "internalType": "address",
                    "name": "agreementClass",
                    "type": "address"
                },
                {
                    "indexed": false,
                    "internalType": "bytes32",
                    "name": "id",
                    "type": "bytes32"
                }
            ],
            "name": "AgreementTerminated",
            "type": "event"
        },
        {
            "anonymous": false,
            "inputs": [
                {
                    "indexed": true,
                    "internalType": "address",
                    "name": "agreementClass",
                    "type": "address"
                },
                {
                    "indexed": false,
                    "internalType": "bytes32",
                    "name": "id",
                    "type": "bytes32"
                },
                {
                    "indexed": false,
                    "internalType": "bytes32[]",
                    "name": "data",
                    "type": "bytes32[]"
                }
            ],
            "name": "AgreementUpdated",
            "type": "event"
        },
        {
            "anonymous": false,
            "inputs": [
                {
                    "indexed": true,
                    "internalType": "address",
                    "name": "owner",
                    "type": "address"
                },
                {
                    "indexed": true,
                    "internalType": "address",
                    "name": "spender",
                    "type": "address"
                },
                {
                    "indexed": false,
                    "internalType": "uint256",
                    "name": "value",
                    "type": "uint256"
                }
            ],
            "name": "Approval",
            "type": "event"
        },
        {
            "anonymous": false,
            "inputs": [
                {
                    "indexed": true,
                    "internalType": "address",
                    "name": "operator",
                    "type": "address"
                },
                {
                    "indexed": true,
                    "internalType": "address",
                    "name": "tokenHolder",
                    "type": "address"
                }
            ],
            "name": "AuthorizedOperator",
            "type": "event"
        },
        {
            "anonymous": false,
            "inputs": [
                {
                    "indexed": true,
                    "internalType": "address",
                    "name": "bailoutAccount",
                    "type": "address"
                },
                {
                    "indexed": false,
                    "internalType": "uint256",
                    "name": "bailoutAmount",
                    "type": "uint256"
                }
            ],
            "name": "Bailout",
            "type": "event"
        },
        {
            "anonymous": false,
            "inputs": [
                {
                    "indexed": true,
                    "internalType": "address",
                    "name": "operator",
                    "type": "address"
                },
                {
                    "indexed": true,
                    "internalType": "address",
                    "name": "from",
                    "type": "address"
                },
                {
                    "indexed": false,
                    "internalType": "uint256",
                    "name": "amount",
                    "type": "uint256"
                },
                {
                    "indexed": false,
                    "internalType": "bytes",
                    "name": "data",
                    "type": "bytes"
                },
                {
                    "indexed": false,
                    "internalType": "bytes",
                    "name": "operatorData",
                    "type": "bytes"
                }
            ],
            "name": "Burned",
            "type": "event"
        },
        {
            "anonymous": false,
            "inputs": [
                {
                    "indexed": false,
                    "internalType": "bytes32",
                    "name": "uuid",
                    "type": "bytes32"
                },
                {
                    "indexed": false,
                    "internalType": "address",
                    "name": "codeAddress",
                    "type": "address"
                }
            ],
            "name": "CodeUpdated",
            "type": "event"
        },
        {
            "anonymous": false,
            "inputs": [
                {
                    "indexed": false,
                    "internalType": "uint8",
                    "name": "version",
                    "type": "uint8"
                }
            ],
            "name": "Initialized",
            "type": "event"
        },
        {
            "anonymous": false,
            "inputs": [
                {
                    "indexed": true,
                    "internalType": "address",
                    "name": "operator",
                    "type": "address"
                },
                {
                    "indexed": true,
                    "internalType": "address",
                    "name": "to",
                    "type": "address"
                },
                {
                    "indexed": false,
                    "internalType": "uint256",
                    "name": "amount",
                    "type": "uint256"
                },
                {
                    "indexed": false,
                    "internalType": "bytes",
                    "name": "data",
                    "type": "bytes"
                },
                {
                    "indexed": false,
                    "internalType": "bytes",
                    "name": "operatorData",
                    "type": "bytes"
                }
            ],
            "name": "Minted",
            "type": "event"
        },
        {
            "anonymous": false,
            "inputs": [
                {
                    "indexed": true,
                    "internalType": "address",
                    "name": "operator",
                    "type": "address"
                },
                {
                    "indexed": true,
                    "internalType": "address",
                    "name": "tokenHolder",
                    "type": "address"
                }
            ],
            "name": "RevokedOperator",
            "type": "event"
        },
        {
            "anonymous": false,
            "inputs": [
                {
                    "indexed": true,
                    "internalType": "address",
                    "name": "operator",
                    "type": "address"
                },
                {
                    "indexed": true,
                    "internalType": "address",
                    "name": "from",
                    "type": "address"
                },
                {
                    "indexed": true,
                    "internalType": "address",
                    "name": "to",
                    "type": "address"
                },
                {
                    "indexed": false,
                    "internalType": "uint256",
                    "name": "amount",
                    "type": "uint256"
                },
                {
                    "indexed": false,
                    "internalType": "bytes",
                    "name": "data",
                    "type": "bytes"
                },
                {
                    "indexed": false,
                    "internalType": "bytes",
                    "name": "operatorData",
                    "type": "bytes"
                }
            ],
            "name": "Sent",
            "type": "event"
        },
        {
            "anonymous": false,
            "inputs": [
                {
                    "indexed": true,
                    "internalType": "address",
                    "name": "account",
                    "type": "address"
                },
                {
                    "indexed": false,
                    "internalType": "uint256",
                    "name": "amount",
                    "type": "uint256"
                }
            ],
            "name": "TokenDowngraded",
            "type": "event"
        },
        {
            "anonymous": false,
            "inputs": [
                {
                    "indexed": true,
                    "internalType": "address",
                    "name": "account",
                    "type": "address"
                },
                {
                    "indexed": false,
                    "internalType": "uint256",
                    "name": "amount",
                    "type": "uint256"
                }
            ],
            "name": "TokenUpgraded",
            "type": "event"
        },
        {
            "anonymous": false,
            "inputs": [
                {
                    "indexed": true,
                    "internalType": "address",
                    "name": "from",
                    "type": "address"
                },
                {
                    "indexed": true,
                    "internalType": "address",
                    "name": "to",
                    "type": "address"
                },
                {
                    "indexed": false,
                    "internalType": "uint256",
                    "name": "value",
                    "type": "uint256"
                }
            ],
            "name": "Transfer",
            "type": "event"
        },
        {
            "inputs": [
                {
                    "internalType": "address",
                    "name": "account",
                    "type": "address"
                },
                {
                    "internalType": "address",
                    "name": "spender",
                    "type": "address"
                }
            ],
            "name": "allowance",
            "outputs": [
                {
                    "internalType": "uint256",
                    "name": "",
                    "type": "uint256"
                }
            ],
            "stateMutability": "view",
            "type": "function"
        },
        {
            "inputs": [
                {
                    "internalType": "address",
                    "name": "spender",
                    "type": "address"
                },
                {
                    "internalType": "uint256",
                    "name": "amount",
                    "type": "uint256"
                }
            ],
            "name": "approve",
            "outputs": [
                {
                    "internalType": "bool",
                    "name": "",
                    "type": "bool"
                }
            ],
            "stateMutability": "nonpayable",
            "type": "function"
        },
        {
            "inputs": [
                {
                    "internalType": "address",
                    "name": "operator",
                    "type": "address"
                }
            ],
            "name": "authorizeOperator",
            "outputs": [],
            "stateMutability": "nonpayable",
            "type": "function"
        },
        {
            "inputs": [
                {
                    "internalType": "address",
                    "name": "account",
                    "type": "address"
                }
            ],
            "name": "balanceOf",
            "outputs": [
                {
                    "internalType": "uint256",
                    "name": "balance",
                    "type": "uint256"
                }
            ],
            "stateMutability": "view",
            "type": "function"
        },
        {
            "inputs": [
                {
                    "internalType": "uint256",
                    "name": "amount",
                    "type": "uint256"
                },
                {
                    "internalType": "bytes",
                    "name": "data",
                    "type": "bytes"
                }
            ],
            "name": "burn",
            "outputs": [],
            "stateMutability": "nonpayable",
            "type": "function"
        },
        {
            "inputs": [
                {
                    "internalType": "bytes32",
                    "name": "id",
                    "type": "bytes32"
                },
                {
                    "internalType": "bytes32[]",
                    "name": "data",
                    "type": "bytes32[]"
                }
            ],
            "name": "createAgreement",
            "outputs": [],
            "stateMutability": "nonpayable",
            "type": "function"
        },
        {
            "inputs": [],
            "name": "decimals",
            "outputs": [
                {
                    "internalType": "uint8",
                    "name": "",
                    "type": "uint8"
                }
            ],
            "stateMutability": "pure",
            "type": "function"
        },
        {
            "inputs": [
                {
                    "internalType": "address",
                    "name": "spender",
                    "type": "address"
                },
                {
                    "internalType": "uint256",
                    "name": "subtractedValue",
                    "type": "uint256"
                }
            ],
            "name": "decreaseAllowance",
            "outputs": [
                {
                    "internalType": "bool",
                    "name": "",
                    "type": "bool"
                }
            ],
            "stateMutability": "nonpayable",
            "type": "function"
        },
        {
            "inputs": [],
            "name": "defaultOperators",
            "outputs": [
                {
                    "internalType": "address[]",
                    "name": "",
                    "type": "address[]"
                }
            ],
            "stateMutability": "view",
            "type": "function"
        },
        {
            "inputs": [
                {
                    "internalType": "uint256",
                    "name": "amount",
                    "type": "uint256"
                }
            ],
            "name": "downgrade",
            "outputs": [],
            "stateMutability": "nonpayable",
            "type": "function"
        },
        {
            "inputs": [
                {
                    "internalType": "address",
                    "name": "account",
                    "type": "address"
                }
            ],
            "name": "getAccountActiveAgreements",
            "outputs": [
                {
                    "internalType": "contract ISuperAgreement[]",
                    "name": "",
                    "type": "address[]"
                }
            ],
            "stateMutability": "view",
            "type": "function"
        },
        {
            "inputs": [
                {
                    "internalType": "address",
                    "name": "agreementClass",
                    "type": "address"
                },
                {
                    "internalType": "bytes32",
                    "name": "id",
                    "type": "bytes32"
                },
                {
                    "internalType": "uint256",
                    "name": "dataLength",
                    "type": "uint256"
                }
            ],
            "name": "getAgreementData",
            "outputs": [
                {
                    "internalType": "bytes32[]",
                    "name": "data",
                    "type": "bytes32[]"
                }
            ],
            "stateMutability": "view",
            "type": "function"
        },
        {
            "inputs": [
                {
                    "internalType": "address",
                    "name": "agreementClass",
                    "type": "address"
                },
                {
                    "internalType": "address",
                    "name": "account",
                    "type": "address"
                },
                {
                    "internalType": "uint256",
                    "name": "slotId",
                    "type": "uint256"
                },
                {
                    "internalType": "uint256",
                    "name": "dataLength",
                    "type": "uint256"
                }
            ],
            "name": "getAgreementStateSlot",
            "outputs": [
                {
                    "internalType": "bytes32[]",
                    "name": "slotData",
                    "type": "bytes32[]"
                }
            ],
            "stateMutability": "view",
            "type": "function"
        },
        {
            "inputs": [],
            "name": "getCodeAddress",
            "outputs": [
                {
                    "internalType": "address",
                    "name": "codeAddress",
                    "type": "address"
                }
            ],
            "stateMutability": "view",
            "type": "function"
        },
        {
            "inputs": [],
            "name": "getHost",
            "outputs": [
                {
                    "internalType": "address",
                    "name": "host",
                    "type": "address"
                }
            ],
            "stateMutability": "view",
            "type": "function"
        },
        {
            "inputs": [],
            "name": "getUnderlyingToken",
            "outputs": [
                {
                    "internalType": "address",
                    "name": "",
                    "type": "address"
                }
            ],
            "stateMutability": "view",
            "type": "function"
        },
        {
            "inputs": [],
            "name": "granularity",
            "outputs": [
                {
                    "internalType": "uint256",
                    "name": "",
                    "type": "uint256"
                }
            ],
            "stateMutability": "pure",
            "type": "function"
        },
        {
            "inputs": [
                {
                    "internalType": "address",
                    "name": "spender",
                    "type": "address"
                },
                {
                    "internalType": "uint256",
                    "name": "addedValue",
                    "type": "uint256"
                }
            ],
            "name": "increaseAllowance",
            "outputs": [
                {
                    "internalType": "bool",
                    "name": "",
                    "type": "bool"
                }
            ],
            "stateMutability": "nonpayable",
            "type": "function"
        },
        {
            "inputs": [
                {
                    "internalType": "contract IERC20",
                    "name": "underlyingToken",
                    "type": "address"
                },
                {
                    "internalType": "uint8",
                    "name": "underlyingDecimals",
                    "type": "uint8"
                },
                {
                    "internalType": "string",
                    "name": "n",
                    "type": "string"
                },
                {
                    "internalType": "string",
                    "name": "s",
                    "type": "string"
                }
            ],
            "name": "initialize",
            "outputs": [],
            "stateMutability": "nonpayable",
            "type": "function"
        },
        {
            "inputs": [
                {
                    "internalType": "address",
                    "name": "account",
                    "type": "address"
                },
                {
                    "internalType": "uint256",
                    "name": "timestamp",
                    "type": "uint256"
                }
            ],
            "name": "isAccountCritical",
            "outputs": [
                {
                    "internalType": "bool",
                    "name": "isCritical",
                    "type": "bool"
                }
            ],
            "stateMutability": "view",
            "type": "function"
        },
        {
            "inputs": [
                {
                    "internalType": "address",
                    "name": "account",
                    "type": "address"
                }
            ],
            "name": "isAccountCriticalNow",
            "outputs": [
                {
                    "internalType": "bool",
                    "name": "isCritical",
                    "type": "bool"
                }
            ],
            "stateMutability": "view",
            "type": "function"
        },
        {
            "inputs": [
                {
                    "internalType": "address",
                    "name": "account",
                    "type": "address"
                },
                {
                    "internalType": "uint256",
                    "name": "timestamp",
                    "type": "uint256"
                }
            ],
            "name": "isAccountSolvent",
            "outputs": [
                {
                    "internalType": "bool",
                    "name": "isSolvent",
                    "type": "bool"
                }
            ],
            "stateMutability": "view",
            "type": "function"
        },
        {
            "inputs": [
                {
                    "internalType": "address",
                    "name": "account",
                    "type": "address"
                }
            ],
            "name": "isAccountSolventNow",
            "outputs": [
                {
                    "internalType": "bool",
                    "name": "isSolvent",
                    "type": "bool"
                }
            ],
            "stateMutability": "view",
            "type": "function"
        },
        {
            "inputs": [
                {
                    "internalType": "address",
                    "name": "operator",
                    "type": "address"
                },
                {
                    "internalType": "address",
                    "name": "tokenHolder",
                    "type": "address"
                }
            ],
            "name": "isOperatorFor",
            "outputs": [
                {
                    "internalType": "bool",
                    "name": "",
                    "type": "bool"
                }
            ],
            "stateMutability": "view",
            "type": "function"
        },
        {
            "inputs": [
                {
                    "internalType": "bytes32",
                    "name": "id",
                    "type": "bytes32"
                },
                {
                    "internalType": "bytes",
                    "name": "liquidationTypeData",
                    "type": "bytes"
                },
                {
                    "internalType": "address",
                    "name": "liquidatorAccount",
                    "type": "address"
                },
                {
                    "internalType": "bool",
                    "name": "useDefaultRewardAccount",
                    "type": "bool"
                },
                {
                    "internalType": "address",
                    "name": "targetAccount",
                    "type": "address"
                },
                {
                    "internalType": "uint256",
                    "name": "rewardAmount",
                    "type": "uint256"
                },
                {
                    "internalType": "int256",
                    "name": "targetAccountBalanceDelta",
                    "type": "int256"
                }
            ],
            "name": "makeLiquidationPayoutsV2",
            "outputs": [],
            "stateMutability": "nonpayable",
            "type": "function"
        },
        {
            "inputs": [],
            "name": "name",
            "outputs": [
                {
                    "internalType": "string",
                    "name": "",
                    "type": "string"
                }
            ],
            "stateMutability": "view",
            "type": "function"
        },
        {
            "inputs": [
                {
                    "internalType": "address",
                    "name": "account",
                    "type": "address"
                },
                {
                    "internalType": "address",
                    "name": "spender",
                    "type": "address"
                },
                {
                    "internalType": "uint256",
                    "name": "amount",
                    "type": "uint256"
                }
            ],
            "name": "operationApprove",
            "outputs": [],
            "stateMutability": "nonpayable",
            "type": "function"
        },
        {
            "inputs": [
                {
                    "internalType": "address",
                    "name": "account",
                    "type": "address"
                },
                {
                    "internalType": "uint256",
                    "name": "amount",
                    "type": "uint256"
                }
            ],
            "name": "operationDowngrade",
            "outputs": [],
            "stateMutability": "nonpayable",
            "type": "function"
        },
        {
            "inputs": [
                {
                    "internalType": "address",
                    "name": "account",
                    "type": "address"
                },
                {
                    "internalType": "address",
                    "name": "spender",
                    "type": "address"
                },
                {
                    "internalType": "address",
                    "name": "recipient",
                    "type": "address"
                },
                {
                    "internalType": "uint256",
                    "name": "amount",
                    "type": "uint256"
                }
            ],
            "name": "operationTransferFrom",
            "outputs": [],
            "stateMutability": "nonpayable",
            "type": "function"
        },
        {
            "inputs": [
                {
                    "internalType": "address",
                    "name": "account",
                    "type": "address"
                },
                {
                    "internalType": "uint256",
                    "name": "amount",
                    "type": "uint256"
                }
            ],
            "name": "operationUpgrade",
            "outputs": [],
            "stateMutability": "nonpayable",
            "type": "function"
        },
        {
            "inputs": [
                {
                    "internalType": "address",
                    "name": "account",
                    "type": "address"
                },
                {
                    "internalType": "uint256",
                    "name": "amount",
                    "type": "uint256"
                },
                {
                    "internalType": "bytes",
                    "name": "data",
                    "type": "bytes"
                },
                {
                    "internalType": "bytes",
                    "name": "operatorData",
                    "type": "bytes"
                }
            ],
            "name": "operatorBurn",
            "outputs": [],
            "stateMutability": "nonpayable",
            "type": "function"
        },
        {
            "inputs": [
                {
                    "internalType": "address",
                    "name": "sender",
                    "type": "address"
                },
                {
                    "internalType": "address",
                    "name": "recipient",
                    "type": "address"
                },
                {
                    "internalType": "uint256",
                    "name": "amount",
                    "type": "uint256"
                },
                {
                    "internalType": "bytes",
                    "name": "data",
                    "type": "bytes"
                },
                {
                    "internalType": "bytes",
                    "name": "operatorData",
                    "type": "bytes"
                }
            ],
            "name": "operatorSend",
            "outputs": [],
            "stateMutability": "nonpayable",
            "type": "function"
        },
        {
            "inputs": [],
            "name": "proxiableUUID",
            "outputs": [
                {
                    "internalType": "bytes32",
                    "name": "",
                    "type": "bytes32"
                }
            ],
            "stateMutability": "pure",
            "type": "function"
        },
        {
            "inputs": [],
            "name": "readMessage",
            "outputs": [
                {
                    "internalType": "string",
                    "name": "",
                    "type": "string"
                }
            ],
            "stateMutability": "pure",
            "type": "function"
        },
        {
            "inputs": [
                {
                    "internalType": "address",
                    "name": "account",
                    "type": "address"
                },
                {
                    "internalType": "uint256",
                    "name": "timestamp",
                    "type": "uint256"
                }
            ],
            "name": "realtimeBalanceOf",
            "outputs": [
                {
                    "internalType": "int256",
                    "name": "availableBalance",
                    "type": "int256"
                },
                {
                    "internalType": "uint256",
                    "name": "deposit",
                    "type": "uint256"
                },
                {
                    "internalType": "uint256",
                    "name": "owedDeposit",
                    "type": "uint256"
                }
            ],
            "stateMutability": "view",
            "type": "function"
        },
        {
            "inputs": [
                {
                    "internalType": "address",
                    "name": "account",
                    "type": "address"
                }
            ],
            "name": "realtimeBalanceOfNow",
            "outputs": [
                {
                    "internalType": "int256",
                    "name": "availableBalance",
                    "type": "int256"
                },
                {
                    "internalType": "uint256",
                    "name": "deposit",
                    "type": "uint256"
                },
                {
                    "internalType": "uint256",
                    "name": "owedDeposit",
                    "type": "uint256"
                },
                {
                    "internalType": "uint256",
                    "name": "timestamp",
                    "type": "uint256"
                }
            ],
            "stateMutability": "view",
            "type": "function"
        },
        {
            "inputs": [
                {
                    "internalType": "address",
                    "name": "operator",
                    "type": "address"
                }
            ],
            "name": "revokeOperator",
            "outputs": [],
            "stateMutability": "nonpayable",
            "type": "function"
        },
        {
            "inputs": [
                {
                    "internalType": "address",
                    "name": "account",
                    "type": "address"
                },
                {
                    "internalType": "address",
                    "name": "spender",
                    "type": "address"
                },
                {
                    "internalType": "uint256",
                    "name": "amount",
                    "type": "uint256"
                }
            ],
            "name": "selfApproveFor",
            "outputs": [],
            "stateMutability": "nonpayable",
            "type": "function"
        },
        {
            "inputs": [
                {
                    "internalType": "address",
                    "name": "account",
                    "type": "address"
                },
                {
                    "internalType": "uint256",
                    "name": "amount",
                    "type": "uint256"
                },
                {
                    "internalType": "bytes",
                    "name": "userData",
                    "type": "bytes"
                }
            ],
            "name": "selfBurn",
            "outputs": [],
            "stateMutability": "nonpayable",
            "type": "function"
        },
        {
            "inputs": [
                {
                    "internalType": "address",
                    "name": "account",
                    "type": "address"
                },
                {
                    "internalType": "uint256",
                    "name": "amount",
                    "type": "uint256"
                },
                {
                    "internalType": "bytes",
                    "name": "userData",
                    "type": "bytes"
                }
            ],
            "name": "selfMint",
            "outputs": [],
            "stateMutability": "nonpayable",
            "type": "function"
        },
        {
            "inputs": [
                {
                    "internalType": "address",
                    "name": "holder",
                    "type": "address"
                },
                {
                    "internalType": "address",
                    "name": "spender",
                    "type": "address"
                },
                {
                    "internalType": "address",
                    "name": "recipient",
                    "type": "address"
                },
                {
                    "internalType": "uint256",
                    "name": "amount",
                    "type": "uint256"
                }
            ],
            "name": "selfTransferFrom",
            "outputs": [],
            "stateMutability": "nonpayable",
            "type": "function"
        },
        {
            "inputs": [
                {
                    "internalType": "address",
                    "name": "recipient",
                    "type": "address"
                },
                {
                    "internalType": "uint256",
                    "name": "amount",
                    "type": "uint256"
                },
                {
                    "internalType": "bytes",
                    "name": "data",
                    "type": "bytes"
                }
            ],
            "name": "send",
            "outputs": [],
            "stateMutability": "nonpayable",
            "type": "function"
        },
        {
            "inputs": [
                {
                    "internalType": "address",
                    "name": "account",
                    "type": "address"
                },
                {
                    "internalType": "int256",
                    "name": "delta",
                    "type": "int256"
                }
            ],
            "name": "settleBalance",
            "outputs": [],
            "stateMutability": "nonpayable",
            "type": "function"
        },
        {
            "inputs": [],
            "name": "symbol",
            "outputs": [
                {
                    "internalType": "string",
                    "name": "",
                    "type": "string"
                }
            ],
            "stateMutability": "view",
            "type": "function"
        },
        {
            "inputs": [
                {
                    "internalType": "bytes32",
                    "name": "id",
                    "type": "bytes32"
                },
                {
                    "internalType": "uint256",
                    "name": "dataLength",
                    "type": "uint256"
                }
            ],
            "name": "terminateAgreement",
            "outputs": [],
            "stateMutability": "nonpayable",
            "type": "function"
        },
        {
            "inputs": [],
            "name": "totalSupply",
            "outputs": [
                {
                    "internalType": "uint256",
                    "name": "",
                    "type": "uint256"
                }
            ],
            "stateMutability": "view",
            "type": "function"
        },
        {
            "inputs": [
                {
                    "internalType": "address",
                    "name": "recipient",
                    "type": "address"
                },
                {
                    "internalType": "uint256",
                    "name": "amount",
                    "type": "uint256"
                }
            ],
            "name": "transfer",
            "outputs": [
                {
                    "internalType": "bool",
                    "name": "",
                    "type": "bool"
                }
            ],
            "stateMutability": "nonpayable",
            "type": "function"
        },
        {
            "inputs": [
                {
                    "internalType": "address",
                    "name": "recipient",
                    "type": "address"
                }
            ],
            "name": "transferAll",
            "outputs": [],
            "stateMutability": "nonpayable",
            "type": "function"
        },
        {
            "inputs": [
                {
                    "internalType": "address",
                    "name": "holder",
                    "type": "address"
                },
                {
                    "internalType": "address",
                    "name": "recipient",
                    "type": "address"
                },
                {
                    "internalType": "uint256",
                    "name": "amount",
                    "type": "uint256"
                }
            ],
            "name": "transferFrom",
            "outputs": [
                {
                    "internalType": "bool",
                    "name": "",
                    "type": "bool"
                }
            ],
            "stateMutability": "nonpayable",
            "type": "function"
        },
        {
            "inputs": [
                {
                    "internalType": "address",
                    "name": "account",
                    "type": "address"
                },
                {
                    "internalType": "uint256",
                    "name": "mostRecentCumulative",
                    "type": "uint256"
                },
                {
                    "internalType": "uint256",
                    "name": "userEnterPoolCumulative",
                    "type": "uint256"
                }
            ],
            "name": "twapBalanceOf",
            "outputs": [
                {
                    "internalType": "uint256",
                    "name": "balance",
                    "type": "uint256"
                }
            ],
            "stateMutability": "view",
            "type": "function"
        },
        {
            "inputs": [
                {
                    "internalType": "bytes32",
                    "name": "id",
                    "type": "bytes32"
                },
                {
                    "internalType": "bytes32[]",
                    "name": "data",
                    "type": "bytes32[]"
                }
            ],
            "name": "updateAgreementData",
            "outputs": [],
            "stateMutability": "nonpayable",
            "type": "function"
        },
        {
            "inputs": [
                {
                    "internalType": "address",
                    "name": "account",
                    "type": "address"
                },
                {
                    "internalType": "uint256",
                    "name": "slotId",
                    "type": "uint256"
                },
                {
                    "internalType": "bytes32[]",
                    "name": "slotData",
                    "type": "bytes32[]"
                }
            ],
            "name": "updateAgreementStateSlot",
            "outputs": [],
            "stateMutability": "nonpayable",
            "type": "function"
        },
        {
            "inputs": [
                {
                    "internalType": "address",
                    "name": "newAddress",
                    "type": "address"
                }
            ],
            "name": "updateCode",
            "outputs": [],
            "stateMutability": "nonpayable",
            "type": "function"
        },
        {
            "inputs": [
                {
                    "internalType": "uint256",
                    "name": "amount",
                    "type": "uint256"
                }
            ],
            "name": "upgrade",
            "outputs": [],
            "stateMutability": "nonpayable",
            "type": "function"
        },
        {
            "inputs": [
                {
                    "internalType": "address",
                    "name": "to",
                    "type": "address"
                },
                {
                    "internalType": "uint256",
                    "name": "amount",
                    "type": "uint256"
                },
                {
                    "internalType": "bytes",
                    "name": "data",
                    "type": "bytes"
                }
            ],
            "name": "upgradeTo",
            "outputs": [],
            "stateMutability": "nonpayable",
            "type": "function"
        }
    ],
    "bytecode": "0x60c06040523480156200001157600080fd5b506040516200533038038062005330833981016040819052620000349162000065565b6001600160a01b039182166080521660a052620000a4565b6001600160a01b03811681146200006257600080fd5b50565b600080604083850312156200007957600080fd5b825162000086816200004c565b602084015190925062000099816200004c565b809150509250929050565b60805160a0516151e86200014860003960008181611c3b0152611f9801526000818161045001528181610aed01528181610b5b01528181610dff01528181610f7a0152818161104901528181611214015281816113620152818161151801528181611824015281816118e60152818161196d01528181611b1701528181611e4f015281816126e90152818161279001528181613a2c0152613cac01526151e86000f3fe608060405234801561001057600080fd5b506004361061035d5760003560e01c806362aa5287116101d3578063a9059cbb11610104578063d9d078d6116100a2578063ee719bc81161007c578063ee719bc8146107db578063fad8b32a146107ec578063fc673c4f146107ff578063fe9d93031461081257600080fd5b8063d9d078d614610761578063dd62ed3e14610774578063eb3537cc146107ad57600080fd5b8063c68d4283116100de578063c68d428314610715578063ca78946414610728578063cf97256d1461073b578063d95b63711461074e57600080fd5b8063a9059cbb146106dc578063b84cdd4a146106ef578063bb0d196e1461070257600080fd5b8063959b8c3f116101715780639d8767411161014b5780639d87674114610690578063a1b2bf8b146106a3578063a3a7e7f3146106b6578063a457c2d7146106c957600080fd5b8063959b8c3f1461066257806395d89b41146106755780639bd9bbc61461067d57600080fd5b80636c2d9f2f116101ad5780636c2d9f2f1461061657806370a082311461062957806379359f6f1461063c5780638feeb1df1461064f57600080fd5b806362aa5287146105dd57806362ad1b83146105f057806366a12fb61461060357600080fd5b806327048397116102ad57806345977d031161024b57806350d75d251161022557806350d75d251461059557806352d1902d1461059d578063556f0dc7146105c35780635b9d09cc146105ca57600080fd5b806345977d031461054f57806346951954146105625780634b61cc331461057557600080fd5b8063386fa22111610287578063386fa22114610503578063395093511461051657806341b706be1461052957806342fe09801461053c57600080fd5b806327048397146104ae5780632ec8eec7146104c1578063313ce567146104f457600080fd5b806312a6a3f81161031a5780631863e809116102f45780631863e8091461043b57806320bc44251461044e57806323b872dd14610488578063245887fc1461049b57600080fd5b806312a6a3f81461040357806316d055d61461041657806318160ddd1461042957600080fd5b8063031d5d011461036257806306e485381461039b57806306fdde03146103b0578063090c415e146103b8578063095ea7b3146103cd57806311bcc81e146103f0575b600080fd5b60408051808201909152600b81526a12195b1b1bc815dbdc9b1960aa1b60208201525b6040516103929190613fe3565b60405180910390f35b6103a3610825565b6040516103929190613ff6565b610385610836565b6103cb6103c63660046140a3565b6108c8565b005b6103e06103db3660046140fe565b61097c565b6040519015158152602001610392565b6103cb6103fe36600461412a565b610993565b6103cb610411366004614143565b6109c1565b6103cb61042436600461418e565b610aeb565b6003545b604051908152602001610392565b6103cb6104493660046142a2565b610b46565b7f00000000000000000000000000000000000000000000000000000000000000005b6040516001600160a01b039091168152602001610392565b6103e0610496366004614334565b610de5565b6103cb6104a93660046140fe565b610dfd565b6103cb6104bc366004614375565b610e74565b6104d46104cf366004614397565b610f51565b604080519485526020850193909352918301526060820152608001610392565b60405160128152602001610392565b6103a3610511366004614397565b611015565b6103e06105243660046140fe565b6110b8565b6103cb61053736600461418e565b6110f4565b6103cb61054a3660046143f5565b61111f565b6103cb61055d36600461412a565b6111dd565b6103cb610570366004614397565b611209565b61058861058336600461448f565b611298565b60405161039291906144d5565b6104706112dd565b7f6bfbb132610e56cb96575dba244667b9d6dbfeffe22b68a79fa16f2d18eb001961042d565b600161042d565b6103cb6105d836600461450d565b611307565b6103cb6105eb366004614334565b611360565b6103cb6105fe36600461455c565b6113b8565b6103cb610611366004614334565b611465565b6105886106243660046145fa565b611484565b61042d610637366004614397565b6114c6565b6103e061064a366004614397565b611510565b61042d61065d3660046145fa565b611598565b6103cb610670366004614397565b6115bd565b61038561160e565b6103cb61068b36600461450d565b61161d565b6103cb61069e36600461462f565b611671565b6103cb6106b1366004614143565b6116b0565b6103cb6106c4366004614397565b61175a565b6103e06106d73660046140fe565b61176e565b6103e06106ea3660046140fe565b6117bd565b6103e06106fd3660046140fe565b6117cb565b6103e0610710366004614397565b61181c565b6103cb61072336600461462f565b6118a4565b6103cb6107363660046140fe565b6118e4565b6103cb6107493660046140fe565b611958565b6103e061075c366004614687565b611cd9565b6103e061076f3660046140fe565b611ce7565b61042d610782366004614687565b6001600160a01b03918216600090815260116020908152604080832093909416825291909152205490565b6107c06107bb3660046140fe565b611d01565b60408051938452602084019290925290820152606001610392565b600e546001600160a01b0316610470565b6103cb6107fa366004614397565b612094565b6103cb61080d3660046146c0565b6120e5565b6103cb610820366004614707565b612184565b606061083160126121d4565b905090565b6060600f805461084590614745565b80601f016020809104026020016040519081016040528092919081815260200182805461087190614745565b80156108be5780601f10610893576101008083540402835291602001916108be565b820191906000526020600020905b8154815290600101906020018083116108a157829003601f168201915b5050505050905090565b60003385856040516020016108df9392919061477f565b6040516020818303038152906040528051906020012090506109348184848080602002602001604051908101604052809392919081815260200183836020028082843760009201919091525061223a92505050565b6040518481526001600160a01b0386169033907f30f416fa68fca014a0f334464c64b000ba53e99b6d2afdea9d5ca756372d5985906020015b60405180910390a35050505050565b600061098933848461227b565b5060015b92915050565b6109be33338360405180602001604052806000815250604051806020016040528060008152506123a3565b50565b60405133906000906109d990839087906020016147c8565b60408051601f19818403018152919052805160209091012090506109fd818461258a565b15610a625760405162461bcd60e51b815260206004820152602a60248201527f5375706572666c756964546f6b656e3a2061677265656d656e7420616c726561604482015269191e4818dc99585d195960b21b60648201526084015b60405180910390fd5b610a9f8185858080602002602001604051908101604052809392919081815260200183836020028082843760009201919091525061223a92505050565b816001600160a01b03167f770ea40a13a4644573ed785e5c7116890709947918747febc5add46feb531e2d868686604051610adc93929190614805565b60405180910390a25050505050565b7f00000000000000000000000000000000000000000000000000000000000000006001600160a01b03163314610b335760405162461bcd60e51b8152600401610a5990614849565b610b3f848484846125c6565b5050505050565b604051632329212160e21b81523360048201527f00000000000000000000000000000000000000000000000000000000000000006001600160a01b031690638ca4848490602401602060405180830381865afa158015610baa573d6000803e3d6000fd5b505050506040513d601f19601f82011682018060405250810190610bce9190614894565b610bea5760405162461bcd60e51b8152600401610a59906148b1565b6000610bf46126e4565b90506001600160a01b038116610c075750845b600085610c145786610c16565b815b905060008313610cb357610c298361490e565b610c3285612823565b14610c3f57610c3f61492a565b610c4884612823565b6001600160a01b03821660009081526002602052604081208054909190610c70908490614940565b90915550506001600160a01b03851660009081526002602052604081208054859290610c9d908490614940565b90915550610cae9050858286612891565b610d7d565b8515610cc157610cc161492a565b82610ccb85612823565b610cd59190614940565b6001600160a01b03831660009081526002602052604081208054909190610cfd908490614981565b90915550610d0c905084612823565b6001600160a01b03881660009081526002602052604081208054909190610d34908490614940565b90915550506001600160a01b03851660009081526002602052604081208054859290610d61908490614940565b90915550610d729050828886612891565b610d7d828685612891565b846001600160a01b0316876001600160a01b0316336001600160a01b03167fb8381a3ce157650e06186e3e8f4dd4dc29236f2688b6eed1893d0a60d7c6386f8c8589898f604051610dd29594939291906149c0565b60405180910390a4505050505050505050565b6000610df3338585856125c6565b90505b9392505050565b7f00000000000000000000000000000000000000000000000000000000000000006001600160a01b03163314610e455760405162461bcd60e51b8152600401610a5990614849565b610e7033838360405180602001604052806000815250604051806020016040528060008152506123a3565b5050565b6040513390600090610e8c90839086906020016147c8565b604051602081830303815290604052805190602001209050610eae818461258a565b610f0c5760405162461bcd60e51b815260206004820152602960248201527f5375706572666c756964546f6b656e3a2061677265656d656e7420646f6573206044820152681b9bdd08195e1a5cdd60ba1b6064820152608401610a59565b610f1681846128c4565b60405184815233907f71a63dc095de07aa5512ad57a7596a39516317e316981a1cd71000057be1537b9060200160405180910390a250505050565b600080600080610f78604051806080016040528060458152602001614fd7604591396128e5565b7f00000000000000000000000000000000000000000000000000000000000000006001600160a01b031663bbe4fd506040518163ffffffff1660e01b8152600401602060405180830381865afa158015610fd6573d6000803e3d6000fd5b505050506040513d601f19601f82011682018060405250810190610ffa91906149f3565b90506110068582611d01565b91979096509094509092509050565b6001600160a01b038181166000908152600160205260409081902054905163c56a069d60e01b8152901960048201526060917f0000000000000000000000000000000000000000000000000000000000000000169063c56a069d90602401600060405180830381865afa158015611090573d6000803e3d6000fd5b505050506040513d6000823e601f3d908101601f1916820160405261098d9190810190614a0c565b3360008181526011602090815260408083206001600160a01b038716845290915281205490916109899185906110ef908690614abd565b61227b565b3330146111135760405162461bcd60e51b8152600401610a5990614ad5565b610b3f838584846125c6565b600061112b6001612928565b90508015611143576000805461ff0019166101001790555b600e805460ff8816600160a01b026001600160a81b03199091166001600160a01b038a1617179055611177600f8686613efb565b5061118460108484613efb565b5061118e306129b0565b80156111d4576000805461ff0019169055604051600181527f7f26b83ff96e1f2b6a682f133852f6798a09c465da95921460cefb38474024989060200160405180910390a15b50505050505050565b6109be333333846040518060200160405280600081525060405180602001604052806000815250612ade565b336001600160a01b037f0000000000000000000000000000000000000000000000000000000000000000161461128f5760405162461bcd60e51b815260206004820152602560248201527f5375706572546f6b656e3a206f6e6c7920686f73742063616e2075706461746560448201526420636f646560d81b6064820152608401610a59565b6109be81612ce1565b606060008585856040516020016112b19392919061477f565b6040516020818303038152906040528051906020012090506112d38184612f21565b9695505050505050565b60006108317f360894a13ba1a3210667c828492db98dca3e2076cc3735a920a3ca505d382bbc5490565b61135a333386866040518060200160405280600081525087878080601f016020809104026020016040519081016040528093929190818152602001838380828437600092019190915250612ade92505050565b50505050565b7f00000000000000000000000000000000000000000000000000000000000000006001600160a01b031633146113a85760405162461bcd60e51b8152600401610a5990614849565b6113b383838361227b565b505050565b336113c56012828a612fb0565b6113e15760405162461bcd60e51b8152600401610a5990614b0c565b61145b8189898989898080601f01602080910402602001604051908101604052809392919081815260200183838082843760009201919091525050604080516020601f8d018190048102820181019092528b815292508b91508a908190840183828082843760009201919091525060019250613059915050565b5050505050505050565b3330146113a85760405162461bcd60e51b8152600401610a5990614ad5565b60606000848460405160200161149b9291906147c8565b6040516020818303038152906040528051906020012090506114bd8184612f21565b95945050505050565b60006114e9604051806060016040528060328152602001614fa5603291396128e5565b60006114f483610f51565b5050509050600081126115075780610df6565b60009392505050565b600061098d827f00000000000000000000000000000000000000000000000000000000000000006001600160a01b031663bbe4fd506040518163ffffffff1660e01b8152600401602060405180830381865afa158015611574573d6000803e3d6000fd5b505050506040513d601f19601f8201168201806040525081019061076f91906149f3565b6000806115a58385614b5c565b6114bd906bffffffffffffffffffffffff8316614b73565b336115ca601282846130d0565b806001600160a01b0316826001600160a01b03167ff4caeb2d6ca8932a215a353d0703c326ec2d81fc68170f320eb2ab49e9df61f960405160405180910390a35050565b60606010805461084590614745565b61135a3333868686868080601f016020809104026020016040519081016040528093929190818152602001838380828437600092018290525060408051602081019091529081529250600191506130599050565b3330146116905760405162461bcd60e51b8152600401610a5990614ad5565b6040805160008152602081019091526113b39033908590859085906131d4565b60405133906000906116c890839087906020016147c8565b60405160208183030381529060405280519060200120905061171d8185858080602002602001604051908101604052809392919081815260200183836020028082843760009201919091525061223a92505050565b336001600160a01b03167f0c4c547b3a4fcaa5be8353b3111472b124155bccc86de811d4a481c9e6e9faca868686604051610adc93929190614805565b610e70333383611769336114c6565b6125c6565b600061098933846110ef856040518060600160405280602a815260200161501c602a91393360009081526011602090815260408083206001600160a01b038d16845290915290205491906132c9565b6000610df6333385856125c6565b6000806000806117db8686611d01565b92509250925060006118038284116117f4576000612823565b6117fe8385614b5c565b612823565b61180d9085614940565b60001315979650505050505050565b600061098d827f00000000000000000000000000000000000000000000000000000000000000006001600160a01b031663bbe4fd506040518163ffffffff1660e01b8152600401602060405180830381865afa158015611880573d6000803e3d6000fd5b505050506040513d601f19601f820116820180604052508101906106fd91906149f3565b3330146118c35760405162461bcd60e51b8152600401610a5990614ad5565b604080516000808252602082019092526113b39133918691869186906132f5565b7f00000000000000000000000000000000000000000000000000000000000000006001600160a01b0316331461192c5760405162461bcd60e51b8152600401610a5990614849565b610e70338384846040518060200160405280600081525060405180602001604052806000815250612ade565b604051632329212160e21b81523360048201527f00000000000000000000000000000000000000000000000000000000000000006001600160a01b031690638ca4848490602401602060405180830381865afa1580156119bc573d6000803e3d6000fd5b505050506040513d601f19601f820116820180604052508101906119e09190614894565b6119fc5760405162461bcd60e51b8152600401610a59906148b1565b426000611a0884611015565b905060005b8151811015610b3f57336001600160a01b0316828281518110611a3257611a32614b92565b60200260200101516001600160a01b031603611cc7576000828281518110611a5c57611a5c614b92565b60200260200101516001600160a01b0316639b2e48bc3088876040518463ffffffff1660e01b8152600401611a9393929190614ba8565b606060405180830381865afa158015611ab0573d6000803e3d6000fd5b505050506040513d601f19601f82011682018060405250810190611ad49190614bcc565b50509050848103611cbb57604051635b69006f60e11b81527fa9214cc96615e0085d3bb077758db69497dc2dce3b2b1e97bc93c3d18d83efd360048201526000907f00000000000000000000000000000000000000000000000000000000000000006001600160a01b03169063b6d200de90602401602060405180830381865afa158015611b66573d6000803e3d6000fd5b505050506040513d601f19601f82011682018060405250810190611b8a9190614bfa565b604051630f1ac49560e01b81523060048201526001600160a01b0389811660248301529190911690630f1ac49590604401608060405180830381865afa158015611bd8573d6000803e3d6000fd5b505050506040513d601f19601f82011682018060405250810190611bfc9190614c17565b505060405163274fc39160e21b8152600481018590523060248201526001600160a01b038a8116604483015260648201899052608482018490529293507f000000000000000000000000000000000000000000000000000000000000000090921691639d3f0e44915060a401602060405180830381865afa158015611c85573d6000803e3d6000fd5b505050506040513d601f19601f82011682018060405250810190611ca991906149f3565b9150611cb587836133ec565b50611cc5565b611cc586866133ec565b505b80611cd181614c5b565b915050611a0d565b6000610df660128484612fb0565b600080611cf48484611d01565b5050600013949350505050565b6000806000611d27604051806080016040528060428152602001615144604291396128e5565b6001600160a01b0385166000908152600260205260408120549350611d4b86611015565b905060005b815181101561208b57611d7a604051806080016040528060428152602001615046604291396128e5565b6000806000848481518110611d9157611d91614b92565b60200260200101516001600160a01b0316639b2e48bc308c8c6040518463ffffffff1660e01b8152600401611dc893929190614ba8565b606060405180830381865afa158015611de5573d6000803e3d6000fd5b505050506040513d601f19601f82011682018060405250810190611e099190614bcc565b9250925092508360000361202c57604051635b69006f60e11b81527fa9214cc96615e0085d3bb077758db69497dc2dce3b2b1e97bc93c3d18d83efd360048201526000907f00000000000000000000000000000000000000000000000000000000000000006001600160a01b03169063b6d200de90602401602060405180830381865afa158015611e9e573d6000803e3d6000fd5b505050506040513d601f19601f82011682018060405250810190611ec29190614bfa565b604051630f1ac49560e01b81523060048201526001600160a01b038d811660248301529190911690630f1ac49590604401608060405180830381865afa158015611f10573d6000803e3d6000fd5b505050506040513d601f19601f82011682018060405250810190611f349190614c17565b5050509050611f5b6040518060800160405280605181526020016150a86051913982613430565b60405163274fc39160e21b8152600481018590523060248201526001600160a01b038c81166044830152606482018c9052608482018390526000917f000000000000000000000000000000000000000000000000000000000000000090911690639d3f0e449060a401602060405180830381865afa158015611fe1573d6000803e3d6000fd5b505050506040513d601f19601f8201168201806040525081019061200591906149f3565b90506120286040518060800160405280604b81526020016150f9604b91396128e5565b9350505b6120368288614abd565b96506120428187614abd565b955061205f818311612055576000612823565b6117fe8284614b5c565b612069848a614940565b6120739190614981565b9750505050808061208390614c5b565b915050611d50565b50509250925092565b336120a160128284613475565b806001600160a01b0316826001600160a01b03167f50546e66e5f44d728365dc3908c63bc5cfeeab470722c1677e3073a6ac294aa160405160405180910390a35050565b336120f260128289612fb0565b61210e5760405162461bcd60e51b8152600401610a5990614b0c565b6111d481888888888080601f01602080910402602001604051908101604052809392919081815260200183838082843760009201919091525050604080516020601f8c018190048102820181019092528a815292508a91508990819084018382808284376000920191909152506123a392505050565b6113b333338585858080601f0160208091040260200160405190810160405280939291908181526020018383808284376000920182905250604080516020810190915290815292506123a3915050565b60608160000180548060200260200160405190810160405280929190818152602001828054801561222e57602002820191906000526020600020905b81546001600160a01b03168152600190910190602001808311612210575b50505050509050919050565b60005b81518110156113b357600082828151811061225a5761225a614b92565b602002602001015190508082850155508061227490614c5b565b905061223d565b6001600160a01b0383166122df5760405162461bcd60e51b815260206004820152602560248201527f5375706572546f6b656e3a20617070726f76652066726f6d207a65726f206164604482015264647265737360d81b6064820152608401610a59565b6001600160a01b0382166123415760405162461bcd60e51b815260206004820152602360248201527f5375706572546f6b656e3a20617070726f766520746f207a65726f206164647260448201526265737360e81b6064820152608401610a59565b6001600160a01b0383811660008181526011602090815260408083209487168084529482529182902085905590518481527f8c5be1e5ebec7d5bd14f71427d1e84f3dd0314c0f7b2291e5b200ac8c7c3b92591015b60405180910390a3505050565b600e546001600160a01b03166123fb5760405162461bcd60e51b815260206004820152601f60248201527f5375706572546f6b656e3a206e6f20756e6465726c79696e6720746f6b656e006044820152606401610a59565b6000806124078561356d565b9150915061241887878387876131d4565b600e546040516370a0823160e01b81523060048201526000916001600160a01b0316906370a0823190602401602060405180830381865afa158015612461573d6000803e3d6000fd5b505050506040513d601f19601f8201168201806040525081019061248591906149f3565b600e5490915061249f906001600160a01b03168885613629565b600e546040516370a0823160e01b81523060048201526000916001600160a01b0316906370a0823190602401602060405180830381865afa1580156124e8573d6000803e3d6000fd5b505050506040513d601f19601f8201168201806040525081019061250c91906149f3565b9050600061251a8284614b5c565b905080851461253b5760405162461bcd60e51b8152600401610a5990614c74565b886001600160a01b03167f3bc27981aebbb57f9247dc00fde9d6cd91e4b230083fec3238fedbcba1f9ab3d8560405161257691815260200190565b60405180910390a250505050505050505050565b6000805b828110156125bc578381015480156125ab5760019250505061098d565b506125b581614c5b565b905061258e565b5060009392505050565b60006001600160a01b0384166125ee5760405162461bcd60e51b8152600401610a5990614cd1565b6001600160a01b0383166126145760405162461bcd60e51b8152600401610a5990614d17565b600033905061264581868686604051806020016040528060008152506040518060200160405280600081525061368c565b846001600160a01b0316866001600160a01b0316146126d8576126d885876110ef866040518060600160405280602d8152602001615186602d9139601160008c6001600160a01b03166001600160a01b0316815260200190815260200160002060008d6001600160a01b03166001600160a01b03168152602001908152602001600020546132c99092919063ffffffff16565b50600195945050505050565b6000807f00000000000000000000000000000000000000000000000000000000000000006001600160a01b031663289b3c0d6040518163ffffffff1660e01b8152600401602060405180830381865afa158015612745573d6000803e3d6000fd5b505050506040513d601f19601f820116820180604052508101906127699190614bfa565b604051638369a0f160e01b81529091506001600160a01b03821690638369a0f1906127dc907f00000000000000000000000000000000000000000000000000000000000000009030907f9f60ae461adf056670e03ae602566409933242392cb06744f5747c9f38b05d0990600401614ba8565b602060405180830381865afa1580156127f9573d6000803e3d6000fd5b505050506040513d601f19601f8201168201806040525081019061281d9190614bfa565b91505090565b60006001600160ff1b0382111561288d5760405162461bcd60e51b815260206004820152602860248201527f53616665436173743a2076616c756520646f65736e27742066697420696e2061604482015267371034b73a191a9b60c11b6064820152608401610a59565b5090565b816001600160a01b0316836001600160a01b03166000805160206150888339815191528360405161239691815260200190565b60005b818110156113b3576000838201556128de81614c5b565b90506128c7565b6109be816040516024016128f99190613fe3565b60408051601f198184030181529190526020810180516001600160e01b031663104c13eb60e21b17905261372b565b60008054610100900460ff161561296f578160ff16600114801561294b5750303b155b6129675760405162461bcd60e51b8152600401610a5990614d5b565b506000919050565b60005460ff8084169116106129965760405162461bcd60e51b8152600401610a5990614d5b565b506000805460ff191660ff92909216919091179055600190565b6040516329965a1d60e01b81526001600160a01b03821660048201527fac7fbab5f54a3ca8194167523c6753bfeb96a445279294b6125b68cce21770546024820152306044820152731820a4b7618bde71dce8cdc73aab6c95905fad24906329965a1d90606401600060405180830381600087803b158015612a3157600080fd5b505af1158015612a45573d6000803e3d6000fd5b50506040516329965a1d60e01b81526001600160a01b03841660048201527faea199e31a596269b42cdafd93407f14436db6e4cad65417994c2eb37381e05a6024820152306044820152731820a4b7618bde71dce8cdc73aab6c95905fad2492506329965a1d9150606401600060405180830381600087803b158015612aca57600080fd5b505af1158015610b3f573d6000803e3d6000fd5b600e546001600160a01b0316612b365760405162461bcd60e51b815260206004820152601f60248201527f5375706572546f6b656e3a206e6f20756e6465726c79696e6720746f6b656e006044820152606401610a59565b600080612b428561356d565b600e546040516370a0823160e01b81523060048201529294509092506000916001600160a01b03909116906370a0823190602401602060405180830381865afa158015612b93573d6000803e3d6000fd5b505050506040513d601f19601f82011682018060405250810190612bb791906149f3565b600e54909150612bd2906001600160a01b031689308661374c565b600e546040516370a0823160e01b81523060048201526000916001600160a01b0316906370a0823190602401602060405180830381865afa158015612c1b573d6000803e3d6000fd5b505050506040513d601f19601f82011682018060405250810190612c3f91906149f3565b90506000612c4d8383614b5c565b9050808514612c6e5760405162461bcd60e51b8152600401610a5990614c74565b612c918b8a868c6001600160a01b03168e6001600160a01b031614158b8b6132f5565b886001600160a01b03167f25ca84076773b0455db53621c459ddc84fe40840e4932a62706a032566f399df85604051612ccc91815260200190565b60405180910390a25050505050505050505050565b6000612d0b7f360894a13ba1a3210667c828492db98dca3e2076cc3735a920a3ca505d382bbc5490565b6001600160a01b031603612d615760405162461bcd60e51b815260206004820152601d60248201527f5555505350726f786961626c653a206e6f742075706772616461626c650000006044820152606401610a59565b806001600160a01b03166352d1902d6040518163ffffffff1660e01b8152600401602060405180830381865afa158015612d9f573d6000803e3d6000fd5b505050506040513d601f19601f82011682018060405250810190612dc391906149f3565b7f6bfbb132610e56cb96575dba244667b9d6dbfeffe22b68a79fa16f2d18eb001914612e3d5760405162461bcd60e51b815260206004820152602360248201527f5555505350726f786961626c653a206e6f7420636f6d70617469626c65206c6f60448201526267696360e81b6064820152608401610a59565b6001600160a01b0381163003612e955760405162461bcd60e51b815260206004820152601960248201527f5555505350726f786961626c653a2070726f7879206c6f6f70000000000000006044820152606401610a59565b612ebd817f360894a13ba1a3210667c828492db98dca3e2076cc3735a920a3ca505d382bbc55565b7fe011bc04c286c344a8fcbb8de77f953da762c3e25d8cdea984147fc4168a5dcc7f6bfbb132610e56cb96575dba244667b9d6dbfeffe22b68a79fa16f2d18eb0019604080519182526001600160a01b03841660208301520160405180910390a150565b6060816001600160401b03811115612f3b57612f3b6141df565b604051908082528060200260200182016040528015612f64578160200160208202803683370190505b50905060005b82811015612fa957600081850154905080838381518110612f8d57612f8d614b92565b602090810291909101015250612fa281614c5b565b9050612f6a565b5092915050565b6000816001600160a01b0316836001600160a01b0316148061301f57506001600160a01b038316600090815260018501602052604090205460ff16801561301f57506001600160a01b03808316600090815260038601602090815260408083209387168352929052205460ff16155b80610df357506001600160a01b03808316600090815260028601602090815260408083209387168352929052205460ff1690509392505050565b6001600160a01b03861661307f5760405162461bcd60e51b8152600401610a5990614cd1565b6001600160a01b0385166130a55760405162461bcd60e51b8152600401610a5990614d17565b6130b387878787878761376d565b6130c187878787878761368c565b6111d487878787878787613894565b806001600160a01b0316826001600160a01b0316036131475760405162461bcd60e51b815260206004820152602d60248201527f4552433737374f70657261746f72733a20617574686f72697a696e672073656c60448201526c331030b99037b832b930ba37b960991b6064820152608401610a59565b6001600160a01b038116600090815260018401602052604090205460ff161561319d576001600160a01b03918216600090815260039390930160209081526040808520929093168452529020805460ff19169055565b6001600160a01b0380831660009081526002850160209081526040808320938516835292905220805460ff19166001179055505050565b6001600160a01b0384166132355760405162461bcd60e51b815260206004820152602260248201527f5375706572546f6b656e3a206275726e2066726f6d207a65726f206164647265604482015261737360f01b6064820152608401610a59565b6132448585600086868661376d565b61324e8484613a24565b836001600160a01b0316856001600160a01b03167fa78a9be3a7b862d26933ad85fb11d80ef66b8f972d7cbba06621d583943a409885858560405161329593929190614da9565b60405180910390a36040518381526000906001600160a01b038616906000805160206150888339815191529060200161096d565b600081848411156132ed5760405162461bcd60e51b8152600401610a599190613fe3565b505050900390565b6001600160a01b03851661334b5760405162461bcd60e51b815260206004820181905260248201527f5375706572546f6b656e3a206d696e7420746f207a65726f20616464726573736044820152606401610a59565b6133558585613b78565b6133658660008787868689613894565b846001600160a01b0316866001600160a01b03167f2fe5be0146f74c5bce36c0b80911af6c7d86ff27e89d5cfa61fc681327954e5d8685856040516133ac93929190614da9565b60405180910390a36040518481526001600160a01b03861690600090600080516020615088833981519152906020015b60405180910390a3505050505050565b6001600160a01b038216600090815260026020526040902054613410908290614940565b6001600160a01b0390921660009081526002602052604090209190915550565b610e708282604051602401613446929190614dd4565b60408051601f198184030181529190526020810180516001600160e01b03166309710a9d60e41b17905261372b565b336001600160a01b038216036134e05760405162461bcd60e51b815260206004820152602a60248201527f4552433737374f70657261746f72733a207265766f6b696e672073656c662061604482015269399037b832b930ba37b960b11b6064820152608401610a59565b6001600160a01b038116600090815260018401602052604090205460ff161561353a576001600160a01b0380831660009081526003850160209081526040808320938516835292905220805460ff19166001179055505050565b6001600160a01b03918216600090815260029390930160209081526040808520929093168452529020805460ff19169055565b600e54600090819081906012600160a01b90910460ff1610156135cc57600e546135a290600160a01b900460ff166012614df6565b6135ad90600a614efd565b90506135b98185614f0c565b92506135c58184614b73565b9150613623565b600e546012600160a01b90910460ff16111561361c57600e546135fb90601290600160a01b900460ff16614df6565b61360690600a614efd565b90506136128185614b73565b9250839150613623565b8391508192505b50915091565b6040516001600160a01b0383166024820152604481018290526113b390849063a9059cbb60e01b906064015b60408051601f198184030181529190526020810180516001600160e01b03166001600160e01b031990931692909217909152613bd2565b61369f858561369a86612823565b613ca4565b836001600160a01b0316856001600160a01b0316876001600160a01b03167f06b541ddaa720db2b10a4d0cdac39b8d360425fc073085fac19bc826146779878686866040516136f093929190614da9565b60405180910390a4836001600160a01b0316856001600160a01b0316600080516020615088833981519152856040516133dc91815260200190565b80516a636f6e736f6c652e6c6f67602083016000808483855afa5050505050565b61135a846323b872dd60e01b85858560405160240161365593929190614ba8565b60405163555ddc6560e11b81526001600160a01b03861660048201527f29ddb589b1fb5fc7cf394961c1adf5f8c6454761adf795e67fe149f658abe8956024820152600090731820a4b7618bde71dce8cdc73aab6c95905fad249063aabbb8ca90604401602060405180830381865afa1580156137ee573d6000803e3d6000fd5b505050506040513d601f19601f820116820180604052508101906138129190614bfa565b90506001600160a01b038116156111d457604051633ad5cbc160e11b81526001600160a01b038216906375ab978290613859908a908a908a908a908a908a90600401614f2e565b600060405180830381600087803b15801561387357600080fd5b505af1158015613887573d6000803e3d6000fd5b5050505050505050505050565b60405163555ddc6560e11b81526001600160a01b03861660048201527fb281fc8c12954d22544db45de3159a39272895b169a852b314f9cc762e44c53b6024820152600090731820a4b7618bde71dce8cdc73aab6c95905fad249063aabbb8ca90604401602060405180830381865afa158015613915573d6000803e3d6000fd5b505050506040513d601f19601f820116820180604052508101906139399190614bfa565b90506001600160a01b038116156139b5576040516223de2960e01b81526001600160a01b038216906223de299061397e908b908b908b908b908b908b90600401614f2e565b600060405180830381600087803b15801561399857600080fd5b505af11580156139ac573d6000803e3d6000fd5b5050505061145b565b811561145b576001600160a01b0386163b1561145b5760405162461bcd60e51b815260206004820152602860248201527f5375706572546f6b656e3a206e6f7420616e20455243373737546f6b656e73526044820152671958da5c1a595b9d60c21b6064820152608401610a59565b6000613aac837f00000000000000000000000000000000000000000000000000000000000000006001600160a01b031663bbe4fd506040518163ffffffff1660e01b8152600401602060405180830381865afa158015613a88573d6000803e3d6000fd5b505050506040513d601f19601f820116820180604052508101906107bb91906149f3565b50509050613ab982612823565b811215613b1d5760405162461bcd60e51b815260206004820152602c60248201527f5375706572666c756964546f6b656e3a206275726e20616d6f756e742065786360448201526b656564732062616c616e636560a01b6064820152608401610a59565b613b2682612823565b6001600160a01b038416600090815260026020526040902054613b499190614981565b6001600160a01b038416600090815260026020526040902055600354613b70908390614b5c565b600355505050565b613b8181612823565b6001600160a01b038316600090815260026020526040902054613ba49190614940565b6001600160a01b038316600090815260026020526040902055600354613bcb908290614abd565b6003555050565b6000613c27826040518060400160405280602081526020017f5361666545524332303a206c6f772d6c6576656c2063616c6c206661696c6564815250856001600160a01b0316613de79092919063ffffffff16565b8051909150156113b35780806020019051810190613c459190614894565b6113b35760405162461bcd60e51b815260206004820152602a60248201527f5361666545524332303a204552433230206f7065726174696f6e20646964206e6044820152691bdd081cdd58d8d9595960b21b6064820152608401610a59565b6000613d08847f00000000000000000000000000000000000000000000000000000000000000006001600160a01b031663bbe4fd506040518163ffffffff1660e01b8152600401602060405180830381865afa158015613a88573d6000803e3d6000fd5b5050905081811215613d715760405162461bcd60e51b815260206004820152602c60248201527f5375706572666c756964546f6b656e3a206d6f766520616d6f756e742065786360448201526b656564732062616c616e636560a01b6064820152608401610a59565b6001600160a01b038416600090815260026020526040902054613d95908390614981565b6001600160a01b038086166000908152600260205260408082209390935590851681522054613dc5908390614940565b6001600160a01b03909316600090815260026020526040902092909255505050565b6060610df38484600085856001600160a01b0385163b613e495760405162461bcd60e51b815260206004820152601d60248201527f416464726573733a2063616c6c20746f206e6f6e2d636f6e74726163740000006044820152606401610a59565b600080866001600160a01b03168587604051613e659190614f88565b60006040518083038185875af1925050503d8060008114613ea2576040519150601f19603f3d011682016040523d82523d6000602084013e613ea7565b606091505b5091509150613eb7828286613ec2565b979650505050505050565b60608315613ed1575081610df6565b825115613ee15782518084602001fd5b8160405162461bcd60e51b8152600401610a599190613fe3565b828054613f0790614745565b90600052602060002090601f016020900481019282613f295760008555613f6f565b82601f10613f425782800160ff19823516178555613f6f565b82800160010185558215613f6f579182015b82811115613f6f578235825591602001919060010190613f54565b5061288d9291505b8082111561288d5760008155600101613f77565b60005b83811015613fa6578181015183820152602001613f8e565b8381111561135a5750506000910152565b60008151808452613fcf816020860160208601613f8b565b601f01601f19169290920160200192915050565b602081526000610df66020830184613fb7565b6020808252825182820181905260009190848201906040850190845b818110156140375783516001600160a01b031683529284019291840191600101614012565b50909695505050505050565b6001600160a01b03811681146109be57600080fd5b60008083601f84011261406a57600080fd5b5081356001600160401b0381111561408157600080fd5b6020830191508360208260051b850101111561409c57600080fd5b9250929050565b600080600080606085870312156140b957600080fd5b84356140c481614043565b93506020850135925060408501356001600160401b038111156140e657600080fd5b6140f287828801614058565b95989497509550505050565b6000806040838503121561411157600080fd5b823561411c81614043565b946020939093013593505050565b60006020828403121561413c57600080fd5b5035919050565b60008060006040848603121561415857600080fd5b8335925060208401356001600160401b0381111561417557600080fd5b61418186828701614058565b9497909650939450505050565b600080600080608085870312156141a457600080fd5b84356141af81614043565b935060208501356141bf81614043565b925060408501356141cf81614043565b9396929550929360600135925050565b634e487b7160e01b600052604160045260246000fd5b604051601f8201601f191681016001600160401b038111828210171561421d5761421d6141df565b604052919050565b600082601f83011261423657600080fd5b81356001600160401b0381111561424f5761424f6141df565b614262601f8201601f19166020016141f5565b81815284602083860101111561427757600080fd5b816020850160208301376000918101602001919091529392505050565b80151581146109be57600080fd5b600080600080600080600060e0888a0312156142bd57600080fd5b8735965060208801356001600160401b038111156142da57600080fd5b6142e68a828b01614225565b96505060408801356142f781614043565b9450606088013561430781614294565b9350608088013561431781614043565b9699959850939692959460a0840135945060c09093013592915050565b60008060006060848603121561434957600080fd5b833561435481614043565b9250602084013561436481614043565b929592945050506040919091013590565b6000806040838503121561438857600080fd5b50508035926020909101359150565b6000602082840312156143a957600080fd5b8135610df681614043565b60008083601f8401126143c657600080fd5b5081356001600160401b038111156143dd57600080fd5b60208301915083602082850101111561409c57600080fd5b6000806000806000806080878903121561440e57600080fd5b863561441981614043565b9550602087013560ff8116811461442f57600080fd5b945060408701356001600160401b038082111561444b57600080fd5b6144578a838b016143b4565b9096509450606089013591508082111561447057600080fd5b5061447d89828a016143b4565b979a9699509497509295939492505050565b600080600080608085870312156144a557600080fd5b84356144b081614043565b935060208501356144c081614043565b93969395505050506040820135916060013590565b6020808252825182820181905260009190848201906040850190845b81811015614037578351835292840192918401916001016144f1565b6000806000806060858703121561452357600080fd5b843561452e81614043565b93506020850135925060408501356001600160401b0381111561455057600080fd5b6140f2878288016143b4565b600080600080600080600060a0888a03121561457757600080fd5b873561458281614043565b9650602088013561459281614043565b95506040880135945060608801356001600160401b03808211156145b557600080fd5b6145c18b838c016143b4565b909650945060808a01359150808211156145da57600080fd5b506145e78a828b016143b4565b989b979a50959850939692959293505050565b60008060006060848603121561460f57600080fd5b833561461a81614043565b95602085013595506040909401359392505050565b60008060006060848603121561464457600080fd5b833561464f81614043565b92506020840135915060408401356001600160401b0381111561467157600080fd5b61467d86828701614225565b9150509250925092565b6000806040838503121561469a57600080fd5b82356146a581614043565b915060208301356146b581614043565b809150509250929050565b600080600080600080608087890312156146d957600080fd5b86356146e481614043565b95506020870135945060408701356001600160401b038082111561444b57600080fd5b60008060006040848603121561471c57600080fd5b8335925060208401356001600160401b0381111561473957600080fd5b614181868287016143b4565b600181811c9082168061475957607f821691505b60208210810361477957634e487b7160e01b600052602260045260246000fd5b50919050565b6080808252600e908201526d41677265656d656e74537461746560901b60a08201526001600160a01b039384166020820152919092166040820152606081019190915260c00190565b6060808252600d908201526c41677265656d656e744461746160981b60808201526001600160a01b03929092166020830152604082015260a00190565b838152604060208201819052810182905260006001600160fb1b0383111561482c57600080fd5b8260051b8085606085013760009201606001918252509392505050565b6020808252602b908201527f5375706572666c756964546f6b656e3a204f6e6c7920686f737420636f6e747260408201526a1858dd08185b1b1bddd95960aa1b606082015260800190565b6000602082840312156148a657600080fd5b8151610df681614294565b60208082526027908201527f5375706572666c756964546f6b656e3a206f6e6c79206c6973746564206167726040820152661959595b595b9d60ca1b606082015260800190565b634e487b7160e01b600052601160045260246000fd5b6000600160ff1b8201614923576149236148f8565b5060000390565b634e487b7160e01b600052600160045260246000fd5b600080821280156001600160ff1b0384900385131615614962576149626148f8565b600160ff1b839003841281161561497b5761497b6148f8565b50500190565b60008083128015600160ff1b85018412161561499f5761499f6148f8565b6001600160ff1b03840183138116156149ba576149ba6148f8565b50500390565b85815260018060a01b038516602082015283604082015282606082015260a060808201526000613eb760a0830184613fb7565b600060208284031215614a0557600080fd5b5051919050565b60006020808385031215614a1f57600080fd5b82516001600160401b0380821115614a3657600080fd5b818501915085601f830112614a4a57600080fd5b815181811115614a5c57614a5c6141df565b8060051b9150614a6d8483016141f5565b8181529183018401918481019088841115614a8757600080fd5b938501935b83851015614ab15784519250614aa183614043565b8282529385019390850190614a8c565b98975050505050505050565b60008219821115614ad057614ad06148f8565b500190565b6020808252601d908201527f5375706572546f6b656e3a206f6e6c792073656c6620616c6c6f776564000000604082015260600190565b60208082526030908201527f5375706572546f6b656e3a2063616c6c6572206973206e6f7420616e206f706560408201526f3930ba37b9103337b9103437b63232b960811b606082015260800190565b600082821015614b6e57614b6e6148f8565b500390565b6000816000190483118215151615614b8d57614b8d6148f8565b500290565b634e487b7160e01b600052603260045260246000fd5b6001600160a01b039384168152919092166020820152604081019190915260600190565b600080600060608486031215614be157600080fd5b8351925060208401519150604084015190509250925092565b600060208284031215614c0c57600080fd5b8151610df681614043565b60008060008060808587031215614c2d57600080fd5b84519350602085015180600b0b8114614c4557600080fd5b6040860151606090960151949790965092505050565b600060018201614c6d57614c6d6148f8565b5060010190565b6020808252603a908201527f5375706572546f6b656e3a20696e666c6174696f6e6172792f6465666c61746960408201527f6f6e61727920746f6b656e73206e6f7420737570706f72746564000000000000606082015260800190565b60208082526026908201527f5375706572546f6b656e3a207472616e736665722066726f6d207a65726f206160408201526564647265737360d01b606082015260800190565b60208082526024908201527f5375706572546f6b656e3a207472616e7366657220746f207a65726f206164646040820152637265737360e01b606082015260800190565b6020808252602e908201527f496e697469616c697a61626c653a20636f6e747261637420697320616c72656160408201526d191e481a5b9a5d1a585b1a5e995960921b606082015260800190565b838152606060208201526000614dc26060830185613fb7565b82810360408401526112d38185613fb7565b604081526000614de76040830185613fb7565b90508260208301529392505050565b600060ff821660ff841680821015614e1057614e106148f8565b90039392505050565b600181815b80851115614e54578160001904821115614e3a57614e3a6148f8565b80851615614e4757918102915b93841c9390800290614e1e565b509250929050565b600082614e6b5750600161098d565b81614e785750600061098d565b8160018114614e8e5760028114614e9857614eb4565b600191505061098d565b60ff841115614ea957614ea96148f8565b50506001821b61098d565b5060208310610133831016604e8410600b8410161715614ed7575081810a61098d565b614ee18383614e19565b8060001904821115614ef557614ef56148f8565b029392505050565b6000610df660ff841683614e5c565b600082614f2957634e487b7160e01b600052601260045260246000fd5b500490565b6001600160a01b0387811682528681166020830152851660408201526060810184905260c060808201819052600090614f6990830185613fb7565b82810360a0840152614f7b8185613fb7565b9998505050505050505050565b60008251614f9a818460208701613f8b565b919091019291505056fe312e20456e74657265642062616c616e63654f662066756e6374696f6e20696e204171756564756374546f6b656e2e736f6c322e20456e7465726564207265616c74696d6542616c616e63654f664e6f772066756e6374696f6e20696e20437573746f6d5375706572666c756964546f6b656e2e736f6c5375706572546f6b656e3a2064656372656173656420616c6c6f77616e63652062656c6f77207a65726f342e20456e7465726564207265616c74696d6542616c616e63654f6620666f72206c6f6f7020696e20437573746f6d5375706572666c756964546f6b656e2e736f6cddf252ad1be2c89b69c2b068fc378daa952ba7f163c4a11628f55a4df523b3ef352e2047657420696e697469616c54696d657374616d702066726f6d2063666120696e20437573746f6d5375706572666c756964546f6b656e2e736f6c2e20696e697469616c54696d657374616d703a20526574726965766564207265616c74696d6542616c616e63652066726f6d20506f6f6c466163746f72792e736f6c20696e20437573746f6d5375706572666c756964546f6b656e2e736f6c332e20456e7465726564207265616c74696d6542616c616e63654f662066756e6374696f6e20696e20437573746f6d5375706572666c756964546f6b656e2e736f6c5375706572546f6b656e3a207472616e7366657220616d6f756e74206578636565647320616c6c6f77616e6365a264697066735822122032a91233ae922ef29e5892a88c2ae46c781d93bf76eff8b4c4f936d252ef57a364736f6c634300080e0033",
    "linkReferences": {},
    "deployedLinkReferences": {}
}