{
    "_format": "hh-sol-artifact-1",
    "contractName": "AqueductToken",
    "sourceName": "contracts/tokens/AqueductToken.sol",
    "abi": [
        {
            "inputs": [
                {
                    "internalType": "contract ISuperfluid",
                    "name": "host",
                    "type": "address"
                },
                {
                    "internalType": "contract IAqueductHost",
                    "name": "aqueductHost",
                    "type": "address"
                }
            ],
            "stateMutability": "nonpayable",
            "type": "constructor"
        },
        {
            "anonymous": false,
            "inputs": [
                {
                    "indexed": true,
                    "internalType": "address",
                    "name": "agreementClass",
                    "type": "address"
                },
                {
                    "indexed": false,
                    "internalType": "bytes32",
                    "name": "id",
                    "type": "bytes32"
                },
                {
                    "indexed": false,
                    "internalType": "bytes32[]",
                    "name": "data",
                    "type": "bytes32[]"
                }
            ],
            "name": "AgreementCreated",
            "type": "event"
        },
        {
            "anonymous": false,
            "inputs": [
                {
                    "indexed": true,
                    "internalType": "address",
                    "name": "agreementClass",
                    "type": "address"
                },
                {
                    "indexed": false,
                    "internalType": "bytes32",
                    "name": "id",
                    "type": "bytes32"
                },
                {
                    "indexed": true,
                    "internalType": "address",
                    "name": "penaltyAccount",
                    "type": "address"
                },
                {
                    "indexed": true,
                    "internalType": "address",
                    "name": "rewardAccount",
                    "type": "address"
                },
                {
                    "indexed": false,
                    "internalType": "uint256",
                    "name": "rewardAmount",
                    "type": "uint256"
                }
            ],
            "name": "AgreementLiquidated",
            "type": "event"
        },
        {
            "anonymous": false,
            "inputs": [
                {
                    "indexed": false,
                    "internalType": "address",
                    "name": "liquidatorAccount",
                    "type": "address"
                },
                {
                    "indexed": true,
                    "internalType": "address",
                    "name": "agreementClass",
                    "type": "address"
                },
                {
                    "indexed": false,
                    "internalType": "bytes32",
                    "name": "id",
                    "type": "bytes32"
                },
                {
                    "indexed": true,
                    "internalType": "address",
                    "name": "penaltyAccount",
                    "type": "address"
                },
                {
                    "indexed": true,
                    "internalType": "address",
                    "name": "bondAccount",
                    "type": "address"
                },
                {
                    "indexed": false,
                    "internalType": "uint256",
                    "name": "rewardAmount",
                    "type": "uint256"
                },
                {
                    "indexed": false,
                    "internalType": "uint256",
                    "name": "bailoutAmount",
                    "type": "uint256"
                }
            ],
            "name": "AgreementLiquidatedBy",
            "type": "event"
        },
        {
            "anonymous": false,
            "inputs": [
                {
                    "indexed": true,
                    "internalType": "address",
                    "name": "agreementClass",
                    "type": "address"
                },
                {
                    "indexed": false,
                    "internalType": "bytes32",
                    "name": "id",
                    "type": "bytes32"
                },
                {
                    "indexed": true,
                    "internalType": "address",
                    "name": "liquidatorAccount",
                    "type": "address"
                },
                {
                    "indexed": true,
                    "internalType": "address",
                    "name": "targetAccount",
                    "type": "address"
                },
                {
                    "indexed": false,
                    "internalType": "address",
                    "name": "rewardAmountReceiver",
                    "type": "address"
                },
                {
                    "indexed": false,
                    "internalType": "uint256",
                    "name": "rewardAmount",
                    "type": "uint256"
                },
                {
                    "indexed": false,
                    "internalType": "int256",
                    "name": "targetAccountBalanceDelta",
                    "type": "int256"
                },
                {
                    "indexed": false,
                    "internalType": "bytes",
                    "name": "liquidationTypeData",
                    "type": "bytes"
                }
            ],
            "name": "AgreementLiquidatedV2",
            "type": "event"
        },
        {
            "anonymous": false,
            "inputs": [
                {
                    "indexed": true,
                    "internalType": "address",
                    "name": "agreementClass",
                    "type": "address"
                },
                {
                    "indexed": true,
                    "internalType": "address",
                    "name": "account",
                    "type": "address"
                },
                {
                    "indexed": false,
                    "internalType": "uint256",
                    "name": "slotId",
                    "type": "uint256"
                }
            ],
            "name": "AgreementStateUpdated",
            "type": "event"
        },
        {
            "anonymous": false,
            "inputs": [
                {
                    "indexed": true,
                    "internalType": "address",
                    "name": "agreementClass",
                    "type": "address"
                },
                {
                    "indexed": false,
                    "internalType": "bytes32",
                    "name": "id",
                    "type": "bytes32"
                }
            ],
            "name": "AgreementTerminated",
            "type": "event"
        },
        {
            "anonymous": false,
            "inputs": [
                {
                    "indexed": true,
                    "internalType": "address",
                    "name": "agreementClass",
                    "type": "address"
                },
                {
                    "indexed": false,
                    "internalType": "bytes32",
                    "name": "id",
                    "type": "bytes32"
                },
                {
                    "indexed": false,
                    "internalType": "bytes32[]",
                    "name": "data",
                    "type": "bytes32[]"
                }
            ],
            "name": "AgreementUpdated",
            "type": "event"
        },
        {
            "anonymous": false,
            "inputs": [
                {
                    "indexed": true,
                    "internalType": "address",
                    "name": "owner",
                    "type": "address"
                },
                {
                    "indexed": true,
                    "internalType": "address",
                    "name": "spender",
                    "type": "address"
                },
                {
                    "indexed": false,
                    "internalType": "uint256",
                    "name": "value",
                    "type": "uint256"
                }
            ],
            "name": "Approval",
            "type": "event"
        },
        {
            "anonymous": false,
            "inputs": [
                {
                    "indexed": true,
                    "internalType": "address",
                    "name": "operator",
                    "type": "address"
                },
                {
                    "indexed": true,
                    "internalType": "address",
                    "name": "tokenHolder",
                    "type": "address"
                }
            ],
            "name": "AuthorizedOperator",
            "type": "event"
        },
        {
            "anonymous": false,
            "inputs": [
                {
                    "indexed": true,
                    "internalType": "address",
                    "name": "bailoutAccount",
                    "type": "address"
                },
                {
                    "indexed": false,
                    "internalType": "uint256",
                    "name": "bailoutAmount",
                    "type": "uint256"
                }
            ],
            "name": "Bailout",
            "type": "event"
        },
        {
            "anonymous": false,
            "inputs": [
                {
                    "indexed": true,
                    "internalType": "address",
                    "name": "operator",
                    "type": "address"
                },
                {
                    "indexed": true,
                    "internalType": "address",
                    "name": "from",
                    "type": "address"
                },
                {
                    "indexed": false,
                    "internalType": "uint256",
                    "name": "amount",
                    "type": "uint256"
                },
                {
                    "indexed": false,
                    "internalType": "bytes",
                    "name": "data",
                    "type": "bytes"
                },
                {
                    "indexed": false,
                    "internalType": "bytes",
                    "name": "operatorData",
                    "type": "bytes"
                }
            ],
            "name": "Burned",
            "type": "event"
        },
        {
            "anonymous": false,
            "inputs": [
                {
                    "indexed": false,
                    "internalType": "bytes32",
                    "name": "uuid",
                    "type": "bytes32"
                },
                {
                    "indexed": false,
                    "internalType": "address",
                    "name": "codeAddress",
                    "type": "address"
                }
            ],
            "name": "CodeUpdated",
            "type": "event"
        },
        {
            "anonymous": false,
            "inputs": [
                {
                    "indexed": false,
                    "internalType": "uint8",
                    "name": "version",
                    "type": "uint8"
                }
            ],
            "name": "Initialized",
            "type": "event"
        },
        {
            "anonymous": false,
            "inputs": [
                {
                    "indexed": true,
                    "internalType": "address",
                    "name": "operator",
                    "type": "address"
                },
                {
                    "indexed": true,
                    "internalType": "address",
                    "name": "to",
                    "type": "address"
                },
                {
                    "indexed": false,
                    "internalType": "uint256",
                    "name": "amount",
                    "type": "uint256"
                },
                {
                    "indexed": false,
                    "internalType": "bytes",
                    "name": "data",
                    "type": "bytes"
                },
                {
                    "indexed": false,
                    "internalType": "bytes",
                    "name": "operatorData",
                    "type": "bytes"
                }
            ],
            "name": "Minted",
            "type": "event"
        },
        {
            "anonymous": false,
            "inputs": [
                {
                    "indexed": true,
                    "internalType": "address",
                    "name": "operator",
                    "type": "address"
                },
                {
                    "indexed": true,
                    "internalType": "address",
                    "name": "tokenHolder",
                    "type": "address"
                }
            ],
            "name": "RevokedOperator",
            "type": "event"
        },
        {
            "anonymous": false,
            "inputs": [
                {
                    "indexed": true,
                    "internalType": "address",
                    "name": "operator",
                    "type": "address"
                },
                {
                    "indexed": true,
                    "internalType": "address",
                    "name": "from",
                    "type": "address"
                },
                {
                    "indexed": true,
                    "internalType": "address",
                    "name": "to",
                    "type": "address"
                },
                {
                    "indexed": false,
                    "internalType": "uint256",
                    "name": "amount",
                    "type": "uint256"
                },
                {
                    "indexed": false,
                    "internalType": "bytes",
                    "name": "data",
                    "type": "bytes"
                },
                {
                    "indexed": false,
                    "internalType": "bytes",
                    "name": "operatorData",
                    "type": "bytes"
                }
            ],
            "name": "Sent",
            "type": "event"
        },
        {
            "anonymous": false,
            "inputs": [
                {
                    "indexed": true,
                    "internalType": "address",
                    "name": "account",
                    "type": "address"
                },
                {
                    "indexed": false,
                    "internalType": "uint256",
                    "name": "amount",
                    "type": "uint256"
                }
            ],
            "name": "TokenDowngraded",
            "type": "event"
        },
        {
            "anonymous": false,
            "inputs": [
                {
                    "indexed": true,
                    "internalType": "address",
                    "name": "account",
                    "type": "address"
                },
                {
                    "indexed": false,
                    "internalType": "uint256",
                    "name": "amount",
                    "type": "uint256"
                }
            ],
            "name": "TokenUpgraded",
            "type": "event"
        },
        {
            "anonymous": false,
            "inputs": [
                {
                    "indexed": true,
                    "internalType": "address",
                    "name": "from",
                    "type": "address"
                },
                {
                    "indexed": true,
                    "internalType": "address",
                    "name": "to",
                    "type": "address"
                },
                {
                    "indexed": false,
                    "internalType": "uint256",
                    "name": "value",
                    "type": "uint256"
                }
            ],
            "name": "Transfer",
            "type": "event"
        },
        {
            "inputs": [
                {
                    "internalType": "address",
                    "name": "account",
                    "type": "address"
                },
                {
                    "internalType": "address",
                    "name": "spender",
                    "type": "address"
                }
            ],
            "name": "allowance",
            "outputs": [
                {
                    "internalType": "uint256",
                    "name": "",
                    "type": "uint256"
                }
            ],
            "stateMutability": "view",
            "type": "function"
        },
        {
            "inputs": [
                {
                    "internalType": "address",
                    "name": "spender",
                    "type": "address"
                },
                {
                    "internalType": "uint256",
                    "name": "amount",
                    "type": "uint256"
                }
            ],
            "name": "approve",
            "outputs": [
                {
                    "internalType": "bool",
                    "name": "",
                    "type": "bool"
                }
            ],
            "stateMutability": "nonpayable",
            "type": "function"
        },
        {
            "inputs": [
                {
                    "internalType": "address",
                    "name": "operator",
                    "type": "address"
                }
            ],
            "name": "authorizeOperator",
            "outputs": [],
            "stateMutability": "nonpayable",
            "type": "function"
        },
        {
            "inputs": [
                {
                    "internalType": "address",
                    "name": "account",
                    "type": "address"
                }
            ],
            "name": "balanceOf",
            "outputs": [
                {
                    "internalType": "uint256",
                    "name": "balance",
                    "type": "uint256"
                }
            ],
            "stateMutability": "view",
            "type": "function"
        },
        {
            "inputs": [
                {
                    "internalType": "uint256",
                    "name": "amount",
                    "type": "uint256"
                },
                {
                    "internalType": "bytes",
                    "name": "data",
                    "type": "bytes"
                }
            ],
            "name": "burn",
            "outputs": [],
            "stateMutability": "nonpayable",
            "type": "function"
        },
        {
            "inputs": [
                {
                    "internalType": "bytes32",
                    "name": "id",
                    "type": "bytes32"
                },
                {
                    "internalType": "bytes32[]",
                    "name": "data",
                    "type": "bytes32[]"
                }
            ],
            "name": "createAgreement",
            "outputs": [],
            "stateMutability": "nonpayable",
            "type": "function"
        },
        {
            "inputs": [],
            "name": "decimals",
            "outputs": [
                {
                    "internalType": "uint8",
                    "name": "",
                    "type": "uint8"
                }
            ],
            "stateMutability": "pure",
            "type": "function"
        },
        {
            "inputs": [
                {
                    "internalType": "address",
                    "name": "spender",
                    "type": "address"
                },
                {
                    "internalType": "uint256",
                    "name": "subtractedValue",
                    "type": "uint256"
                }
            ],
            "name": "decreaseAllowance",
            "outputs": [
                {
                    "internalType": "bool",
                    "name": "",
                    "type": "bool"
                }
            ],
            "stateMutability": "nonpayable",
            "type": "function"
        },
        {
            "inputs": [],
            "name": "defaultOperators",
            "outputs": [
                {
                    "internalType": "address[]",
                    "name": "",
                    "type": "address[]"
                }
            ],
            "stateMutability": "view",
            "type": "function"
        },
        {
            "inputs": [
                {
                    "internalType": "uint256",
                    "name": "amount",
                    "type": "uint256"
                }
            ],
            "name": "downgrade",
            "outputs": [],
            "stateMutability": "nonpayable",
            "type": "function"
        },
        {
            "inputs": [
                {
                    "internalType": "address",
                    "name": "account",
                    "type": "address"
                }
            ],
            "name": "getAccountActiveAgreements",
            "outputs": [
                {
                    "internalType": "contract ISuperAgreement[]",
                    "name": "",
                    "type": "address[]"
                }
            ],
            "stateMutability": "view",
            "type": "function"
        },
        {
            "inputs": [
                {
                    "internalType": "address",
                    "name": "agreementClass",
                    "type": "address"
                },
                {
                    "internalType": "bytes32",
                    "name": "id",
                    "type": "bytes32"
                },
                {
                    "internalType": "uint256",
                    "name": "dataLength",
                    "type": "uint256"
                }
            ],
            "name": "getAgreementData",
            "outputs": [
                {
                    "internalType": "bytes32[]",
                    "name": "data",
                    "type": "bytes32[]"
                }
            ],
            "stateMutability": "view",
            "type": "function"
        },
        {
            "inputs": [
                {
                    "internalType": "address",
                    "name": "agreementClass",
                    "type": "address"
                },
                {
                    "internalType": "address",
                    "name": "account",
                    "type": "address"
                },
                {
                    "internalType": "uint256",
                    "name": "slotId",
                    "type": "uint256"
                },
                {
                    "internalType": "uint256",
                    "name": "dataLength",
                    "type": "uint256"
                }
            ],
            "name": "getAgreementStateSlot",
            "outputs": [
                {
                    "internalType": "bytes32[]",
                    "name": "slotData",
                    "type": "bytes32[]"
                }
            ],
            "stateMutability": "view",
            "type": "function"
        },
        {
            "inputs": [],
            "name": "getCodeAddress",
            "outputs": [
                {
                    "internalType": "address",
                    "name": "codeAddress",
                    "type": "address"
                }
            ],
            "stateMutability": "view",
            "type": "function"
        },
        {
            "inputs": [],
            "name": "getHost",
            "outputs": [
                {
                    "internalType": "address",
                    "name": "host",
                    "type": "address"
                }
            ],
            "stateMutability": "view",
            "type": "function"
        },
        {
            "inputs": [],
            "name": "getUnderlyingToken",
            "outputs": [
                {
                    "internalType": "address",
                    "name": "",
                    "type": "address"
                }
            ],
            "stateMutability": "view",
            "type": "function"
        },
        {
            "inputs": [],
            "name": "granularity",
            "outputs": [
                {
                    "internalType": "uint256",
                    "name": "",
                    "type": "uint256"
                }
            ],
            "stateMutability": "pure",
            "type": "function"
        },
        {
            "inputs": [
                {
                    "internalType": "address",
                    "name": "spender",
                    "type": "address"
                },
                {
                    "internalType": "uint256",
                    "name": "addedValue",
                    "type": "uint256"
                }
            ],
            "name": "increaseAllowance",
            "outputs": [
                {
                    "internalType": "bool",
                    "name": "",
                    "type": "bool"
                }
            ],
            "stateMutability": "nonpayable",
            "type": "function"
        },
        {
            "inputs": [
                {
                    "internalType": "contract IERC20",
                    "name": "underlyingToken",
                    "type": "address"
                },
                {
                    "internalType": "uint8",
                    "name": "underlyingDecimals",
                    "type": "uint8"
                },
                {
                    "internalType": "string",
                    "name": "n",
                    "type": "string"
                },
                {
                    "internalType": "string",
                    "name": "s",
                    "type": "string"
                }
            ],
            "name": "initialize",
            "outputs": [],
            "stateMutability": "nonpayable",
            "type": "function"
        },
        {
            "inputs": [
                {
                    "internalType": "address",
                    "name": "account",
                    "type": "address"
                },
                {
                    "internalType": "uint256",
                    "name": "timestamp",
                    "type": "uint256"
                }
            ],
            "name": "isAccountCritical",
            "outputs": [
                {
                    "internalType": "bool",
                    "name": "isCritical",
                    "type": "bool"
                }
            ],
            "stateMutability": "view",
            "type": "function"
        },
        {
            "inputs": [
                {
                    "internalType": "address",
                    "name": "account",
                    "type": "address"
                }
            ],
            "name": "isAccountCriticalNow",
            "outputs": [
                {
                    "internalType": "bool",
                    "name": "isCritical",
                    "type": "bool"
                }
            ],
            "stateMutability": "view",
            "type": "function"
        },
        {
            "inputs": [
                {
                    "internalType": "address",
                    "name": "account",
                    "type": "address"
                },
                {
                    "internalType": "uint256",
                    "name": "timestamp",
                    "type": "uint256"
                }
            ],
            "name": "isAccountSolvent",
            "outputs": [
                {
                    "internalType": "bool",
                    "name": "isSolvent",
                    "type": "bool"
                }
            ],
            "stateMutability": "view",
            "type": "function"
        },
        {
            "inputs": [
                {
                    "internalType": "address",
                    "name": "account",
                    "type": "address"
                }
            ],
            "name": "isAccountSolventNow",
            "outputs": [
                {
                    "internalType": "bool",
                    "name": "isSolvent",
                    "type": "bool"
                }
            ],
            "stateMutability": "view",
            "type": "function"
        },
        {
            "inputs": [
                {
                    "internalType": "address",
                    "name": "operator",
                    "type": "address"
                },
                {
                    "internalType": "address",
                    "name": "tokenHolder",
                    "type": "address"
                }
            ],
            "name": "isOperatorFor",
            "outputs": [
                {
                    "internalType": "bool",
                    "name": "",
                    "type": "bool"
                }
            ],
            "stateMutability": "view",
            "type": "function"
        },
        {
            "inputs": [
                {
                    "internalType": "bytes32",
                    "name": "id",
                    "type": "bytes32"
                },
                {
                    "internalType": "bytes",
                    "name": "liquidationTypeData",
                    "type": "bytes"
                },
                {
                    "internalType": "address",
                    "name": "liquidatorAccount",
                    "type": "address"
                },
                {
                    "internalType": "bool",
                    "name": "useDefaultRewardAccount",
                    "type": "bool"
                },
                {
                    "internalType": "address",
                    "name": "targetAccount",
                    "type": "address"
                },
                {
                    "internalType": "uint256",
                    "name": "rewardAmount",
                    "type": "uint256"
                },
                {
                    "internalType": "int256",
                    "name": "targetAccountBalanceDelta",
                    "type": "int256"
                }
            ],
            "name": "makeLiquidationPayoutsV2",
            "outputs": [],
            "stateMutability": "nonpayable",
            "type": "function"
        },
        {
            "inputs": [],
            "name": "name",
            "outputs": [
                {
                    "internalType": "string",
                    "name": "",
                    "type": "string"
                }
            ],
            "stateMutability": "view",
            "type": "function"
        },
        {
            "inputs": [
                {
                    "internalType": "address",
                    "name": "account",
                    "type": "address"
                },
                {
                    "internalType": "address",
                    "name": "spender",
                    "type": "address"
                },
                {
                    "internalType": "uint256",
                    "name": "amount",
                    "type": "uint256"
                }
            ],
            "name": "operationApprove",
            "outputs": [],
            "stateMutability": "nonpayable",
            "type": "function"
        },
        {
            "inputs": [
                {
                    "internalType": "address",
                    "name": "account",
                    "type": "address"
                },
                {
                    "internalType": "uint256",
                    "name": "amount",
                    "type": "uint256"
                }
            ],
            "name": "operationDowngrade",
            "outputs": [],
            "stateMutability": "nonpayable",
            "type": "function"
        },
        {
            "inputs": [
                {
                    "internalType": "address",
                    "name": "account",
                    "type": "address"
                },
                {
                    "internalType": "address",
                    "name": "spender",
                    "type": "address"
                },
                {
                    "internalType": "address",
                    "name": "recipient",
                    "type": "address"
                },
                {
                    "internalType": "uint256",
                    "name": "amount",
                    "type": "uint256"
                }
            ],
            "name": "operationTransferFrom",
            "outputs": [],
            "stateMutability": "nonpayable",
            "type": "function"
        },
        {
            "inputs": [
                {
                    "internalType": "address",
                    "name": "account",
                    "type": "address"
                },
                {
                    "internalType": "uint256",
                    "name": "amount",
                    "type": "uint256"
                }
            ],
            "name": "operationUpgrade",
            "outputs": [],
            "stateMutability": "nonpayable",
            "type": "function"
        },
        {
            "inputs": [
                {
                    "internalType": "address",
                    "name": "account",
                    "type": "address"
                },
                {
                    "internalType": "uint256",
                    "name": "amount",
                    "type": "uint256"
                },
                {
                    "internalType": "bytes",
                    "name": "data",
                    "type": "bytes"
                },
                {
                    "internalType": "bytes",
                    "name": "operatorData",
                    "type": "bytes"
                }
            ],
            "name": "operatorBurn",
            "outputs": [],
            "stateMutability": "nonpayable",
            "type": "function"
        },
        {
            "inputs": [
                {
                    "internalType": "address",
                    "name": "sender",
                    "type": "address"
                },
                {
                    "internalType": "address",
                    "name": "recipient",
                    "type": "address"
                },
                {
                    "internalType": "uint256",
                    "name": "amount",
                    "type": "uint256"
                },
                {
                    "internalType": "bytes",
                    "name": "data",
                    "type": "bytes"
                },
                {
                    "internalType": "bytes",
                    "name": "operatorData",
                    "type": "bytes"
                }
            ],
            "name": "operatorSend",
            "outputs": [],
            "stateMutability": "nonpayable",
            "type": "function"
        },
        {
            "inputs": [],
            "name": "proxiableUUID",
            "outputs": [
                {
                    "internalType": "bytes32",
                    "name": "",
                    "type": "bytes32"
                }
            ],
            "stateMutability": "pure",
            "type": "function"
        },
        {
            "inputs": [],
            "name": "readMessage",
            "outputs": [
                {
                    "internalType": "string",
                    "name": "",
                    "type": "string"
                }
            ],
            "stateMutability": "pure",
            "type": "function"
        },
        {
            "inputs": [
                {
                    "internalType": "address",
                    "name": "account",
                    "type": "address"
                },
                {
                    "internalType": "uint256",
                    "name": "timestamp",
                    "type": "uint256"
                }
            ],
            "name": "realtimeBalanceOf",
            "outputs": [
                {
                    "internalType": "int256",
                    "name": "availableBalance",
                    "type": "int256"
                },
                {
                    "internalType": "uint256",
                    "name": "deposit",
                    "type": "uint256"
                },
                {
                    "internalType": "uint256",
                    "name": "owedDeposit",
                    "type": "uint256"
                }
            ],
            "stateMutability": "view",
            "type": "function"
        },
        {
            "inputs": [
                {
                    "internalType": "address",
                    "name": "account",
                    "type": "address"
                }
            ],
            "name": "realtimeBalanceOfNow",
            "outputs": [
                {
                    "internalType": "int256",
                    "name": "availableBalance",
                    "type": "int256"
                },
                {
                    "internalType": "uint256",
                    "name": "deposit",
                    "type": "uint256"
                },
                {
                    "internalType": "uint256",
                    "name": "owedDeposit",
                    "type": "uint256"
                },
                {
                    "internalType": "uint256",
                    "name": "timestamp",
                    "type": "uint256"
                }
            ],
            "stateMutability": "view",
            "type": "function"
        },
        {
            "inputs": [
                {
                    "internalType": "address",
                    "name": "operator",
                    "type": "address"
                }
            ],
            "name": "revokeOperator",
            "outputs": [],
            "stateMutability": "nonpayable",
            "type": "function"
        },
        {
            "inputs": [
                {
                    "internalType": "address",
                    "name": "account",
                    "type": "address"
                },
                {
                    "internalType": "address",
                    "name": "spender",
                    "type": "address"
                },
                {
                    "internalType": "uint256",
                    "name": "amount",
                    "type": "uint256"
                }
            ],
            "name": "selfApproveFor",
            "outputs": [],
            "stateMutability": "nonpayable",
            "type": "function"
        },
        {
            "inputs": [
                {
                    "internalType": "address",
                    "name": "account",
                    "type": "address"
                },
                {
                    "internalType": "uint256",
                    "name": "amount",
                    "type": "uint256"
                },
                {
                    "internalType": "bytes",
                    "name": "userData",
                    "type": "bytes"
                }
            ],
            "name": "selfBurn",
            "outputs": [],
            "stateMutability": "nonpayable",
            "type": "function"
        },
        {
            "inputs": [
                {
                    "internalType": "address",
                    "name": "account",
                    "type": "address"
                },
                {
                    "internalType": "uint256",
                    "name": "amount",
                    "type": "uint256"
                },
                {
                    "internalType": "bytes",
                    "name": "userData",
                    "type": "bytes"
                }
            ],
            "name": "selfMint",
            "outputs": [],
            "stateMutability": "nonpayable",
            "type": "function"
        },
        {
            "inputs": [
                {
                    "internalType": "address",
                    "name": "holder",
                    "type": "address"
                },
                {
                    "internalType": "address",
                    "name": "spender",
                    "type": "address"
                },
                {
                    "internalType": "address",
                    "name": "recipient",
                    "type": "address"
                },
                {
                    "internalType": "uint256",
                    "name": "amount",
                    "type": "uint256"
                }
            ],
            "name": "selfTransferFrom",
            "outputs": [],
            "stateMutability": "nonpayable",
            "type": "function"
        },
        {
            "inputs": [
                {
                    "internalType": "address",
                    "name": "recipient",
                    "type": "address"
                },
                {
                    "internalType": "uint256",
                    "name": "amount",
                    "type": "uint256"
                },
                {
                    "internalType": "bytes",
                    "name": "data",
                    "type": "bytes"
                }
            ],
            "name": "send",
            "outputs": [],
            "stateMutability": "nonpayable",
            "type": "function"
        },
        {
            "inputs": [
                {
                    "internalType": "address",
                    "name": "account",
                    "type": "address"
                },
                {
                    "internalType": "int256",
                    "name": "delta",
                    "type": "int256"
                }
            ],
            "name": "settleBalance",
            "outputs": [],
            "stateMutability": "nonpayable",
            "type": "function"
        },
        {
            "inputs": [],
            "name": "symbol",
            "outputs": [
                {
                    "internalType": "string",
                    "name": "",
                    "type": "string"
                }
            ],
            "stateMutability": "view",
            "type": "function"
        },
        {
            "inputs": [
                {
                    "internalType": "bytes32",
                    "name": "id",
                    "type": "bytes32"
                },
                {
                    "internalType": "uint256",
                    "name": "dataLength",
                    "type": "uint256"
                }
            ],
            "name": "terminateAgreement",
            "outputs": [],
            "stateMutability": "nonpayable",
            "type": "function"
        },
        {
            "inputs": [],
            "name": "totalSupply",
            "outputs": [
                {
                    "internalType": "uint256",
                    "name": "",
                    "type": "uint256"
                }
            ],
            "stateMutability": "view",
            "type": "function"
        },
        {
            "inputs": [
                {
                    "internalType": "address",
                    "name": "recipient",
                    "type": "address"
                },
                {
                    "internalType": "uint256",
                    "name": "amount",
                    "type": "uint256"
                }
            ],
            "name": "transfer",
            "outputs": [
                {
                    "internalType": "bool",
                    "name": "",
                    "type": "bool"
                }
            ],
            "stateMutability": "nonpayable",
            "type": "function"
        },
        {
            "inputs": [
                {
                    "internalType": "address",
                    "name": "recipient",
                    "type": "address"
                }
            ],
            "name": "transferAll",
            "outputs": [],
            "stateMutability": "nonpayable",
            "type": "function"
        },
        {
            "inputs": [
                {
                    "internalType": "address",
                    "name": "holder",
                    "type": "address"
                },
                {
                    "internalType": "address",
                    "name": "recipient",
                    "type": "address"
                },
                {
                    "internalType": "uint256",
                    "name": "amount",
                    "type": "uint256"
                }
            ],
            "name": "transferFrom",
            "outputs": [
                {
                    "internalType": "bool",
                    "name": "",
                    "type": "bool"
                }
            ],
            "stateMutability": "nonpayable",
            "type": "function"
        },
        {
            "inputs": [
                {
                    "internalType": "address",
                    "name": "account",
                    "type": "address"
                },
                {
                    "internalType": "uint256",
                    "name": "mostRecentCumulative",
                    "type": "uint256"
                },
                {
                    "internalType": "uint256",
                    "name": "userEnterPoolCumulative",
                    "type": "uint256"
                }
            ],
            "name": "twapBalanceOf",
            "outputs": [
                {
                    "internalType": "uint256",
                    "name": "balance",
                    "type": "uint256"
                }
            ],
            "stateMutability": "view",
            "type": "function"
        },
        {
            "inputs": [
                {
                    "internalType": "bytes32",
                    "name": "id",
                    "type": "bytes32"
                },
                {
                    "internalType": "bytes32[]",
                    "name": "data",
                    "type": "bytes32[]"
                }
            ],
            "name": "updateAgreementData",
            "outputs": [],
            "stateMutability": "nonpayable",
            "type": "function"
        },
        {
            "inputs": [
                {
                    "internalType": "address",
                    "name": "account",
                    "type": "address"
                },
                {
                    "internalType": "uint256",
                    "name": "slotId",
                    "type": "uint256"
                },
                {
                    "internalType": "bytes32[]",
                    "name": "slotData",
                    "type": "bytes32[]"
                }
            ],
            "name": "updateAgreementStateSlot",
            "outputs": [],
            "stateMutability": "nonpayable",
            "type": "function"
        },
        {
            "inputs": [
                {
                    "internalType": "address",
                    "name": "newAddress",
                    "type": "address"
                }
            ],
            "name": "updateCode",
            "outputs": [],
            "stateMutability": "nonpayable",
            "type": "function"
        },
        {
            "inputs": [
                {
                    "internalType": "uint256",
                    "name": "amount",
                    "type": "uint256"
                }
            ],
            "name": "upgrade",
            "outputs": [],
            "stateMutability": "nonpayable",
            "type": "function"
        },
        {
            "inputs": [
                {
                    "internalType": "address",
                    "name": "to",
                    "type": "address"
                },
                {
                    "internalType": "uint256",
                    "name": "amount",
                    "type": "uint256"
                },
                {
                    "internalType": "bytes",
                    "name": "data",
                    "type": "bytes"
                }
            ],
            "name": "upgradeTo",
            "outputs": [],
            "stateMutability": "nonpayable",
            "type": "function"
        }
    ],
    "bytecode": "0x60c06040523480156200001157600080fd5b506040516200524338038062005243833981016040819052620000349162000065565b6001600160a01b039182166080521660a052620000a4565b6001600160a01b03811681146200006257600080fd5b50565b600080604083850312156200007957600080fd5b825162000086816200004c565b602084015190925062000099816200004c565b809150509250929050565b60805160a0516150ed6200015660003960008181611be601528181611c5801528181611f9c015261200e01526000818161045001528181610aed01528181610b5b01528181610dff01528181610f5901528181611028015281816111f301528181611341015281816114d5015281816117e1015281816118a30152818161192a01528181611ad401528181611e8a015281816127a10152818161284801528181613a400152613cc001526150ed6000f3fe608060405234801561001057600080fd5b506004361061035d5760003560e01c806362aa5287116101d3578063a9059cbb11610104578063d9d078d6116100a2578063ee719bc81161007c578063ee719bc8146107db578063fad8b32a146107ec578063fc673c4f146107ff578063fe9d93031461081257600080fd5b8063d9d078d614610761578063dd62ed3e14610774578063eb3537cc146107ad57600080fd5b8063c68d4283116100de578063c68d428314610715578063ca78946414610728578063cf97256d1461073b578063d95b63711461074e57600080fd5b8063a9059cbb146106dc578063b84cdd4a146106ef578063bb0d196e1461070257600080fd5b8063959b8c3f116101715780639d8767411161014b5780639d87674114610690578063a1b2bf8b146106a3578063a3a7e7f3146106b6578063a457c2d7146106c957600080fd5b8063959b8c3f1461066257806395d89b41146106755780639bd9bbc61461067d57600080fd5b80636c2d9f2f116101ad5780636c2d9f2f1461061657806370a082311461062957806379359f6f1461063c5780638feeb1df1461064f57600080fd5b806362aa5287146105dd57806362ad1b83146105f057806366a12fb61461060357600080fd5b806327048397116102ad57806345977d031161024b57806350d75d251161022557806350d75d251461059557806352d1902d1461059d578063556f0dc7146105c35780635b9d09cc146105ca57600080fd5b806345977d031461054f57806346951954146105625780634b61cc331461057557600080fd5b8063386fa22111610287578063386fa22114610503578063395093511461051657806341b706be1461052957806342fe09801461053c57600080fd5b806327048397146104ae5780632ec8eec7146104c1578063313ce567146104f457600080fd5b806312a6a3f81161031a5780631863e809116102f45780631863e8091461043b57806320bc44251461044e57806323b872dd14610488578063245887fc1461049b57600080fd5b806312a6a3f81461040357806316d055d61461041657806318160ddd1461042957600080fd5b8063031d5d011461036257806306e485381461039b57806306fdde03146103b0578063090c415e146103b8578063095ea7b3146103cd57806311bcc81e146103f0575b600080fd5b60408051808201909152600b81526a12195b1b1bc815dbdc9b1960aa1b60208201525b6040516103929190613ff7565b60405180910390f35b6103a3610825565b604051610392919061400a565b610385610836565b6103cb6103c63660046140b7565b6108c8565b005b6103e06103db366004614112565b61097c565b6040519015158152602001610392565b6103cb6103fe36600461413e565b610993565b6103cb610411366004614157565b6109c1565b6103cb6104243660046141a2565b610aeb565b6003545b604051908152602001610392565b6103cb6104493660046142b6565b610b46565b7f00000000000000000000000000000000000000000000000000000000000000005b6040516001600160a01b039091168152602001610392565b6103e0610496366004614348565b610de5565b6103cb6104a9366004614112565b610dfd565b6103cb6104bc366004614389565b610e74565b6104d46104cf3660046143ab565b610f51565b604080519485526020850193909352918301526060820152608001610392565b60405160128152602001610392565b6103a36105113660046143ab565b610ff4565b6103e0610524366004614112565b611097565b6103cb6105373660046141a2565b6110d3565b6103cb61054a366004614409565b6110fe565b6103cb61055d36600461413e565b6111bc565b6103cb6105703660046143ab565b6111e8565b6105886105833660046144a3565b611277565b60405161039291906144e9565b6104706112bc565b7f6bfbb132610e56cb96575dba244667b9d6dbfeffe22b68a79fa16f2d18eb001961042d565b600161042d565b6103cb6105d8366004614521565b6112e6565b6103cb6105eb366004614348565b61133f565b6103cb6105fe366004614570565b611397565b6103cb610611366004614348565b611444565b61058861062436600461460e565b611463565b61042d6106373660046143ab565b6114a5565b6103e061064a3660046143ab565b6114cd565b61042d61065d36600461460e565b611555565b6103cb6106703660046143ab565b61157a565b6103856115cb565b6103cb61068b366004614521565b6115da565b6103cb61069e366004614643565b61162e565b6103cb6106b1366004614157565b61166d565b6103cb6106c43660046143ab565b611717565b6103e06106d7366004614112565b61172b565b6103e06106ea366004614112565b61177a565b6103e06106fd366004614112565b611788565b6103e06107103660046143ab565b6117d9565b6103cb610723366004614643565b611861565b6103cb610736366004614112565b6118a1565b6103cb610749366004614112565b611915565b6103e061075c36600461469b565b611d5a565b6103e061076f366004614112565b611d68565b61042d61078236600461469b565b6001600160a01b03918216600090815260116020908152604080832093909416825291909152205490565b6107c06107bb366004614112565b611d82565b60408051938452602084019290925290820152606001610392565b600e546001600160a01b0316610470565b6103cb6107fa3660046143ab565b61214c565b6103cb61080d3660046146d4565b61219d565b6103cb61082036600461471b565b61223c565b6060610831601261228c565b905090565b6060600f805461084590614759565b80601f016020809104026020016040519081016040528092919081815260200182805461087190614759565b80156108be5780601f10610893576101008083540402835291602001916108be565b820191906000526020600020905b8154815290600101906020018083116108a157829003601f168201915b5050505050905090565b60003385856040516020016108df93929190614793565b604051602081830303815290604052805190602001209050610934818484808060200260200160405190810160405280939291908181526020018383602002808284376000920191909152506122f292505050565b6040518481526001600160a01b0386169033907f30f416fa68fca014a0f334464c64b000ba53e99b6d2afdea9d5ca756372d5985906020015b60405180910390a35050505050565b6000610989338484612333565b5060015b92915050565b6109be333383604051806020016040528060008152506040518060200160405280600081525061245b565b50565b60405133906000906109d990839087906020016147dc565b60408051601f19818403018152919052805160209091012090506109fd8184612642565b15610a625760405162461bcd60e51b815260206004820152602a60248201527f5375706572666c756964546f6b656e3a2061677265656d656e7420616c726561604482015269191e4818dc99585d195960b21b60648201526084015b60405180910390fd5b610a9f818585808060200260200160405190810160405280939291908181526020018383602002808284376000920191909152506122f292505050565b816001600160a01b03167f770ea40a13a4644573ed785e5c7116890709947918747febc5add46feb531e2d868686604051610adc93929190614819565b60405180910390a25050505050565b7f00000000000000000000000000000000000000000000000000000000000000006001600160a01b03163314610b335760405162461bcd60e51b8152600401610a599061485d565b610b3f8484848461267e565b5050505050565b604051632329212160e21b81523360048201527f00000000000000000000000000000000000000000000000000000000000000006001600160a01b031690638ca4848490602401602060405180830381865afa158015610baa573d6000803e3d6000fd5b505050506040513d601f19601f82011682018060405250810190610bce91906148a8565b610bea5760405162461bcd60e51b8152600401610a59906148c5565b6000610bf461279c565b90506001600160a01b038116610c075750845b600085610c145786610c16565b815b905060008313610cb357610c2983614922565b610c32856128db565b14610c3f57610c3f61493e565b610c48846128db565b6001600160a01b03821660009081526002602052604081208054909190610c70908490614954565b90915550506001600160a01b03851660009081526002602052604081208054859290610c9d908490614954565b90915550610cae9050858286612949565b610d7d565b8515610cc157610cc161493e565b82610ccb856128db565b610cd59190614954565b6001600160a01b03831660009081526002602052604081208054909190610cfd908490614995565b90915550610d0c9050846128db565b6001600160a01b03881660009081526002602052604081208054909190610d34908490614954565b90915550506001600160a01b03851660009081526002602052604081208054859290610d61908490614954565b90915550610d729050828886612949565b610d7d828685612949565b846001600160a01b0316876001600160a01b0316336001600160a01b03167fb8381a3ce157650e06186e3e8f4dd4dc29236f2688b6eed1893d0a60d7c6386f8c8589898f604051610dd29594939291906149d4565b60405180910390a4505050505050505050565b6000610df33385858561267e565b90505b9392505050565b7f00000000000000000000000000000000000000000000000000000000000000006001600160a01b03163314610e455760405162461bcd60e51b8152600401610a599061485d565b610e70338383604051806020016040528060008152506040518060200160405280600081525061245b565b5050565b6040513390600090610e8c90839086906020016147dc565b604051602081830303815290604052805190602001209050610eae8184612642565b610f0c5760405162461bcd60e51b815260206004820152602960248201527f5375706572666c756964546f6b656e3a2061677265656d656e7420646f6573206044820152681b9bdd08195e1a5cdd60ba1b6064820152608401610a59565b610f16818461297c565b60405184815233907f71a63dc095de07aa5512ad57a7596a39516317e316981a1cd71000057be1537b9060200160405180910390a250505050565b6000806000807f00000000000000000000000000000000000000000000000000000000000000006001600160a01b031663bbe4fd506040518163ffffffff1660e01b8152600401602060405180830381865afa158015610fb5573d6000803e3d6000fd5b505050506040513d601f19601f82011682018060405250810190610fd99190614a07565b9050610fe58582611d82565b91979096509094509092509050565b6001600160a01b038181166000908152600160205260409081902054905163c56a069d60e01b8152901960048201526060917f0000000000000000000000000000000000000000000000000000000000000000169063c56a069d90602401600060405180830381865afa15801561106f573d6000803e3d6000fd5b505050506040513d6000823e601f3d908101601f1916820160405261098d9190810190614a20565b3360008181526011602090815260408083206001600160a01b038716845290915281205490916109899185906110ce908690614ad1565b612333565b3330146110f25760405162461bcd60e51b8152600401610a5990614ae9565b610b3f8385848461267e565b600061110a600161299d565b90508015611122576000805461ff0019166101001790555b600e805460ff8816600160a01b026001600160a81b03199091166001600160a01b038a1617179055611156600f8686613f0f565b5061116360108484613f0f565b5061116d30612a2a565b80156111b3576000805461ff0019169055604051600181527f7f26b83ff96e1f2b6a682f133852f6798a09c465da95921460cefb38474024989060200160405180910390a15b50505050505050565b6109be333333846040518060200160405280600081525060405180602001604052806000815250612b58565b336001600160a01b037f0000000000000000000000000000000000000000000000000000000000000000161461126e5760405162461bcd60e51b815260206004820152602560248201527f5375706572546f6b656e3a206f6e6c7920686f73742063616e2075706461746560448201526420636f646560d81b6064820152608401610a59565b6109be81612d5b565b6060600085858560405160200161129093929190614793565b6040516020818303038152906040528051906020012090506112b28184612f9b565b9695505050505050565b60006108317f360894a13ba1a3210667c828492db98dca3e2076cc3735a920a3ca505d382bbc5490565b611339333386866040518060200160405280600081525087878080601f016020809104026020016040519081016040528093929190818152602001838380828437600092019190915250612b5892505050565b50505050565b7f00000000000000000000000000000000000000000000000000000000000000006001600160a01b031633146113875760405162461bcd60e51b8152600401610a599061485d565b611392838383612333565b505050565b336113a46012828a61302a565b6113c05760405162461bcd60e51b8152600401610a5990614b20565b61143a8189898989898080601f01602080910402602001604051908101604052809392919081815260200183838082843760009201919091525050604080516020601f8d018190048102820181019092528b815292508b91508a9081908401838280828437600092019190915250600192506130d3915050565b5050505050505050565b3330146113875760405162461bcd60e51b8152600401610a5990614ae9565b60606000848460405160200161147a9291906147dc565b60405160208183030381529060405280519060200120905061149c8184612f9b565b95945050505050565b6000806114b183610f51565b5050509050600081126114c45780610df6565b60009392505050565b600061098d827f00000000000000000000000000000000000000000000000000000000000000006001600160a01b031663bbe4fd506040518163ffffffff1660e01b8152600401602060405180830381865afa158015611531573d6000803e3d6000fd5b505050506040513d601f19601f8201168201806040525081019061076f9190614a07565b6000806115628385614b70565b61149c906bffffffffffffffffffffffff8316614b87565b336115876012828461314a565b806001600160a01b0316826001600160a01b03167ff4caeb2d6ca8932a215a353d0703c326ec2d81fc68170f320eb2ab49e9df61f960405160405180910390a35050565b60606010805461084590614759565b6113393333868686868080601f016020809104026020016040519081016040528093929190818152602001838380828437600092018290525060408051602081019091529081529250600191506130d39050565b33301461164d5760405162461bcd60e51b8152600401610a5990614ae9565b60408051600081526020810190915261139290339085908590859061324e565b604051339060009061168590839087906020016147dc565b6040516020818303038152906040528051906020012090506116da818585808060200260200160405190810160405280939291908181526020018383602002808284376000920191909152506122f292505050565b336001600160a01b03167f0c4c547b3a4fcaa5be8353b3111472b124155bccc86de811d4a481c9e6e9faca868686604051610adc93929190614819565b610e70333383611726336114a5565b61267e565b600061098933846110ce856040518060600160405280602a8152602001615041602a91393360009081526011602090815260408083206001600160a01b038d1684529091529020549190613343565b6000610df63333858561267e565b6000806000806117988686611d82565b92509250925060006117c08284116117b15760006128db565b6117bb8385614b70565b6128db565b6117ca9085614954565b60001315979650505050505050565b600061098d827f00000000000000000000000000000000000000000000000000000000000000006001600160a01b031663bbe4fd506040518163ffffffff1660e01b8152600401602060405180830381865afa15801561183d573d6000803e3d6000fd5b505050506040513d601f19601f820116820180604052508101906106fd9190614a07565b3330146118805760405162461bcd60e51b8152600401610a5990614ae9565b6040805160008082526020820190925261139291339186918691869061336f565b7f00000000000000000000000000000000000000000000000000000000000000006001600160a01b031633146118e95760405162461bcd60e51b8152600401610a599061485d565b610e70338384846040518060200160405280600081525060405180602001604052806000815250612b58565b604051632329212160e21b81523360048201527f00000000000000000000000000000000000000000000000000000000000000006001600160a01b031690638ca4848490602401602060405180830381865afa158015611979573d6000803e3d6000fd5b505050506040513d601f19601f8201168201806040525081019061199d91906148a8565b6119b95760405162461bcd60e51b8152600401610a59906148c5565b4260006119c584610ff4565b905060005b8151811015610b3f57336001600160a01b03168282815181106119ef576119ef614ba6565b60200260200101516001600160a01b031603611d48576000828281518110611a1957611a19614ba6565b60200260200101516001600160a01b0316639b2e48bc3088876040518463ffffffff1660e01b8152600401611a5093929190614bbc565b606060405180830381865afa158015611a6d573d6000803e3d6000fd5b505050506040513d601f19601f82011682018060405250810190611a919190614be0565b50509050848103611d3c57604051635b69006f60e11b81527fa9214cc96615e0085d3bb077758db69497dc2dce3b2b1e97bc93c3d18d83efd360048201526000907f00000000000000000000000000000000000000000000000000000000000000006001600160a01b03169063b6d200de90602401602060405180830381865afa158015611b23573d6000803e3d6000fd5b505050506040513d601f19601f82011682018060405250810190611b479190614c0e565b604051630f1ac49560e01b81523060048201526001600160a01b0389811660248301529190911690630f1ac49590604401608060405180830381865afa158015611b95573d6000803e3d6000fd5b505050506040513d601f19601f82011682018060405250810190611bb99190614c3d565b5050604051633d85eec960e01b81523060048201526001600160a01b038a811660248301529293506000927f0000000000000000000000000000000000000000000000000000000000000000169150633d85eec990604401602060405180830381865afa158015611c2e573d6000803e3d6000fd5b505050506040513d601f19601f82011682018060405250810190611c529190614c79565b905060007f00000000000000000000000000000000000000000000000000000000000000006001600160a01b0316636bca1293308b8a6040518463ffffffff1660e01b8152600401611ca693929190614bbc565b602060405180830381865afa158015611cc3573d6000803e3d6000fd5b505050506040513d601f19601f82011682018060405250810190611ce79190614a07565b9050611cf66117bb8489614b70565b82600b0b611d049190614c94565b611d0e9085614995565b9350611d1e81600b84900b614c94565b611d289085614954565b9350611d348985613466565b505050611d46565b611d468686613466565b505b80611d5281614d19565b9150506119ca565b6000610df66012848461302a565b600080611d758484611d82565b5050600013949350505050565b6001600160a01b038216600090815260026020526040812054908080611da786610ff4565b905060005b8151811015612143576000806000848481518110611dcc57611dcc614ba6565b60200260200101516001600160a01b0316639b2e48bc308c8c6040518463ffffffff1660e01b8152600401611e0393929190614bbc565b606060405180830381865afa158015611e20573d6000803e3d6000fd5b505050506040513d601f19601f82011682018060405250810190611e449190614be0565b925092509250836000036120e457604051635b69006f60e11b81527fa9214cc96615e0085d3bb077758db69497dc2dce3b2b1e97bc93c3d18d83efd360048201526000907f00000000000000000000000000000000000000000000000000000000000000006001600160a01b03169063b6d200de90602401602060405180830381865afa158015611ed9573d6000803e3d6000fd5b505050506040513d601f19601f82011682018060405250810190611efd9190614c0e565b604051630f1ac49560e01b81523060048201526001600160a01b038d811660248301529190911690630f1ac49590604401608060405180830381865afa158015611f4b573d6000803e3d6000fd5b505050506040513d601f19601f82011682018060405250810190611f6f9190614c3d565b5050604051633d85eec960e01b81523060048201526001600160a01b038e811660248301529293506000927f0000000000000000000000000000000000000000000000000000000000000000169150633d85eec990604401602060405180830381865afa158015611fe4573d6000803e3d6000fd5b505050506040513d601f19601f820116820180604052508101906120089190614c79565b905060007f00000000000000000000000000000000000000000000000000000000000000006001600160a01b0316636bca1293308f8f6040518463ffffffff1660e01b815260040161205c93929190614bbc565b602060405180830381865afa158015612079573d6000803e3d6000fd5b505050506040513d601f19601f8201168201806040525081019061209d9190614a07565b90506120ac6117bb848e614b70565b82600b0b6120ba9190614c94565b6120c49087614995565b95506120d481600b84900b614c94565b6120de9087614954565b95505050505b6120ee8288614ad1565b96506120fa8187614ad1565b955061211781831161210d5760006128db565b6117bb8284614b70565b612121848a614954565b61212b9190614995565b9750505050808061213b90614d19565b915050611dac565b50509250925092565b33612159601282846134aa565b806001600160a01b0316826001600160a01b03167f50546e66e5f44d728365dc3908c63bc5cfeeab470722c1677e3073a6ac294aa160405160405180910390a35050565b336121aa6012828961302a565b6121c65760405162461bcd60e51b8152600401610a5990614b20565b6111b381888888888080601f01602080910402602001604051908101604052809392919081815260200183838082843760009201919091525050604080516020601f8c018190048102820181019092528a815292508a915089908190840183828082843760009201919091525061245b92505050565b61139233338585858080601f01602080910402602001604051908101604052809392919081815260200183838082843760009201829052506040805160208101909152908152925061245b915050565b6060816000018054806020026020016040519081016040528092919081815260200182805480156122e657602002820191906000526020600020905b81546001600160a01b031681526001909101906020018083116122c8575b50505050509050919050565b60005b815181101561139257600082828151811061231257612312614ba6565b602002602001015190508082850155508061232c90614d19565b90506122f5565b6001600160a01b0383166123975760405162461bcd60e51b815260206004820152602560248201527f5375706572546f6b656e3a20617070726f76652066726f6d207a65726f206164604482015264647265737360d81b6064820152608401610a59565b6001600160a01b0382166123f95760405162461bcd60e51b815260206004820152602360248201527f5375706572546f6b656e3a20617070726f766520746f207a65726f206164647260448201526265737360e81b6064820152608401610a59565b6001600160a01b0383811660008181526011602090815260408083209487168084529482529182902085905590518481527f8c5be1e5ebec7d5bd14f71427d1e84f3dd0314c0f7b2291e5b200ac8c7c3b92591015b60405180910390a3505050565b600e546001600160a01b03166124b35760405162461bcd60e51b815260206004820152601f60248201527f5375706572546f6b656e3a206e6f20756e6465726c79696e6720746f6b656e006044820152606401610a59565b6000806124bf856135a2565b915091506124d0878783878761324e565b600e546040516370a0823160e01b81523060048201526000916001600160a01b0316906370a0823190602401602060405180830381865afa158015612519573d6000803e3d6000fd5b505050506040513d601f19601f8201168201806040525081019061253d9190614a07565b600e54909150612557906001600160a01b0316888561365e565b600e546040516370a0823160e01b81523060048201526000916001600160a01b0316906370a0823190602401602060405180830381865afa1580156125a0573d6000803e3d6000fd5b505050506040513d601f19601f820116820180604052508101906125c49190614a07565b905060006125d28284614b70565b90508085146125f35760405162461bcd60e51b8152600401610a5990614d32565b886001600160a01b03167f3bc27981aebbb57f9247dc00fde9d6cd91e4b230083fec3238fedbcba1f9ab3d8560405161262e91815260200190565b60405180910390a250505050505050505050565b6000805b82811015612674578381015480156126635760019250505061098d565b5061266d81614d19565b9050612646565b5060009392505050565b60006001600160a01b0384166126a65760405162461bcd60e51b8152600401610a5990614d8f565b6001600160a01b0383166126cc5760405162461bcd60e51b8152600401610a5990614dd5565b60003390506126fd8186868660405180602001604052806000815250604051806020016040528060008152506136c1565b846001600160a01b0316866001600160a01b0316146127905761279085876110ce866040518060600160405280602d815260200161508b602d9139601160008c6001600160a01b03166001600160a01b0316815260200190815260200160002060008d6001600160a01b03166001600160a01b03168152602001908152602001600020546133439092919063ffffffff16565b50600195945050505050565b6000807f00000000000000000000000000000000000000000000000000000000000000006001600160a01b031663289b3c0d6040518163ffffffff1660e01b8152600401602060405180830381865afa1580156127fd573d6000803e3d6000fd5b505050506040513d601f19601f820116820180604052508101906128219190614c0e565b604051638369a0f160e01b81529091506001600160a01b03821690638369a0f190612894907f00000000000000000000000000000000000000000000000000000000000000009030907f9f60ae461adf056670e03ae602566409933242392cb06744f5747c9f38b05d0990600401614bbc565b602060405180830381865afa1580156128b1573d6000803e3d6000fd5b505050506040513d601f19601f820116820180604052508101906128d59190614c0e565b91505090565b60006001600160ff1b038211156129455760405162461bcd60e51b815260206004820152602860248201527f53616665436173743a2076616c756520646f65736e27742066697420696e2061604482015267371034b73a191a9b60c11b6064820152608401610a59565b5090565b816001600160a01b0316836001600160a01b031660008051602061506b8339815191528360405161244e91815260200190565b60005b818110156113925760008382015561299681614d19565b905061297f565b60008054610100900460ff16156129e4578160ff1660011480156129c05750303b155b6129dc5760405162461bcd60e51b8152600401610a5990614e19565b506000919050565b60005460ff808416911610612a0b5760405162461bcd60e51b8152600401610a5990614e19565b506000805460ff191660ff92909216919091179055600190565b919050565b6040516329965a1d60e01b81526001600160a01b03821660048201527fac7fbab5f54a3ca8194167523c6753bfeb96a445279294b6125b68cce21770546024820152306044820152731820a4b7618bde71dce8cdc73aab6c95905fad24906329965a1d90606401600060405180830381600087803b158015612aab57600080fd5b505af1158015612abf573d6000803e3d6000fd5b50506040516329965a1d60e01b81526001600160a01b03841660048201527faea199e31a596269b42cdafd93407f14436db6e4cad65417994c2eb37381e05a6024820152306044820152731820a4b7618bde71dce8cdc73aab6c95905fad2492506329965a1d9150606401600060405180830381600087803b158015612b4457600080fd5b505af1158015610b3f573d6000803e3d6000fd5b600e546001600160a01b0316612bb05760405162461bcd60e51b815260206004820152601f60248201527f5375706572546f6b656e3a206e6f20756e6465726c79696e6720746f6b656e006044820152606401610a59565b600080612bbc856135a2565b600e546040516370a0823160e01b81523060048201529294509092506000916001600160a01b03909116906370a0823190602401602060405180830381865afa158015612c0d573d6000803e3d6000fd5b505050506040513d601f19601f82011682018060405250810190612c319190614a07565b600e54909150612c4c906001600160a01b0316893086613760565b600e546040516370a0823160e01b81523060048201526000916001600160a01b0316906370a0823190602401602060405180830381865afa158015612c95573d6000803e3d6000fd5b505050506040513d601f19601f82011682018060405250810190612cb99190614a07565b90506000612cc78383614b70565b9050808514612ce85760405162461bcd60e51b8152600401610a5990614d32565b612d0b8b8a868c6001600160a01b03168e6001600160a01b031614158b8b61336f565b886001600160a01b03167f25ca84076773b0455db53621c459ddc84fe40840e4932a62706a032566f399df85604051612d4691815260200190565b60405180910390a25050505050505050505050565b6000612d857f360894a13ba1a3210667c828492db98dca3e2076cc3735a920a3ca505d382bbc5490565b6001600160a01b031603612ddb5760405162461bcd60e51b815260206004820152601d60248201527f5555505350726f786961626c653a206e6f742075706772616461626c650000006044820152606401610a59565b806001600160a01b03166352d1902d6040518163ffffffff1660e01b8152600401602060405180830381865afa158015612e19573d6000803e3d6000fd5b505050506040513d601f19601f82011682018060405250810190612e3d9190614a07565b7f6bfbb132610e56cb96575dba244667b9d6dbfeffe22b68a79fa16f2d18eb001914612eb75760405162461bcd60e51b815260206004820152602360248201527f5555505350726f786961626c653a206e6f7420636f6d70617469626c65206c6f60448201526267696360e81b6064820152608401610a59565b6001600160a01b0381163003612f0f5760405162461bcd60e51b815260206004820152601960248201527f5555505350726f786961626c653a2070726f7879206c6f6f70000000000000006044820152606401610a59565b612f37817f360894a13ba1a3210667c828492db98dca3e2076cc3735a920a3ca505d382bbc55565b7fe011bc04c286c344a8fcbb8de77f953da762c3e25d8cdea984147fc4168a5dcc7f6bfbb132610e56cb96575dba244667b9d6dbfeffe22b68a79fa16f2d18eb0019604080519182526001600160a01b03841660208301520160405180910390a150565b6060816001600160401b03811115612fb557612fb56141f3565b604051908082528060200260200182016040528015612fde578160200160208202803683370190505b50905060005b828110156130235760008185015490508083838151811061300757613007614ba6565b60209081029190910101525061301c81614d19565b9050612fe4565b5092915050565b6000816001600160a01b0316836001600160a01b0316148061309957506001600160a01b038316600090815260018501602052604090205460ff16801561309957506001600160a01b03808316600090815260038601602090815260408083209387168352929052205460ff16155b80610df357506001600160a01b03808316600090815260028601602090815260408083209387168352929052205460ff1690509392505050565b6001600160a01b0386166130f95760405162461bcd60e51b8152600401610a5990614d8f565b6001600160a01b03851661311f5760405162461bcd60e51b8152600401610a5990614dd5565b61312d878787878787613781565b61313b8787878787876136c1565b6111b3878787878787876138a8565b806001600160a01b0316826001600160a01b0316036131c15760405162461bcd60e51b815260206004820152602d60248201527f4552433737374f70657261746f72733a20617574686f72697a696e672073656c60448201526c331030b99037b832b930ba37b960991b6064820152608401610a59565b6001600160a01b038116600090815260018401602052604090205460ff1615613217576001600160a01b03918216600090815260039390930160209081526040808520929093168452529020805460ff19169055565b6001600160a01b0380831660009081526002850160209081526040808320938516835292905220805460ff19166001179055505050565b6001600160a01b0384166132af5760405162461bcd60e51b815260206004820152602260248201527f5375706572546f6b656e3a206275726e2066726f6d207a65726f206164647265604482015261737360f01b6064820152608401610a59565b6132be85856000868686613781565b6132c88484613a38565b836001600160a01b0316856001600160a01b03167fa78a9be3a7b862d26933ad85fb11d80ef66b8f972d7cbba06621d583943a409885858560405161330f93929190614e67565b60405180910390a36040518381526000906001600160a01b0386169060008051602061506b8339815191529060200161096d565b600081848411156133675760405162461bcd60e51b8152600401610a599190613ff7565b505050900390565b6001600160a01b0385166133c55760405162461bcd60e51b815260206004820181905260248201527f5375706572546f6b656e3a206d696e7420746f207a65726f20616464726573736044820152606401610a59565b6133cf8585613b8c565b6133df86600087878686896138a8565b846001600160a01b0316866001600160a01b03167f2fe5be0146f74c5bce36c0b80911af6c7d86ff27e89d5cfa61fc681327954e5d86858560405161342693929190614e67565b60405180910390a36040518481526001600160a01b0386169060009060008051602061506b833981519152906020015b60405180910390a3505050505050565b6001600160a01b03821660009081526002602052604090205461348a908290614954565b6001600160a01b0390921660009081526002602052604090209190915550565b336001600160a01b038216036135155760405162461bcd60e51b815260206004820152602a60248201527f4552433737374f70657261746f72733a207265766f6b696e672073656c662061604482015269399037b832b930ba37b960b11b6064820152608401610a59565b6001600160a01b038116600090815260018401602052604090205460ff161561356f576001600160a01b0380831660009081526003850160209081526040808320938516835292905220805460ff19166001179055505050565b6001600160a01b03918216600090815260029390930160209081526040808520929093168452529020805460ff19169055565b600e54600090819081906012600160a01b90910460ff16101561360157600e546135d790600160a01b900460ff166012614e92565b6135e290600a614f99565b90506135ee8185614fa8565b92506135fa8184614b87565b9150613658565b600e546012600160a01b90910460ff16111561365157600e5461363090601290600160a01b900460ff16614e92565b61363b90600a614f99565b90506136478185614b87565b9250839150613658565b8391508192505b50915091565b6040516001600160a01b03831660248201526044810182905261139290849063a9059cbb60e01b906064015b60408051601f198184030181529190526020810180516001600160e01b03166001600160e01b031990931692909217909152613be6565b6136d485856136cf866128db565b613cb8565b836001600160a01b0316856001600160a01b0316876001600160a01b03167f06b541ddaa720db2b10a4d0cdac39b8d360425fc073085fac19bc8261467798786868660405161372593929190614e67565b60405180910390a4836001600160a01b0316856001600160a01b031660008051602061506b8339815191528560405161345691815260200190565b611339846323b872dd60e01b85858560405160240161368a93929190614bbc565b60405163555ddc6560e11b81526001600160a01b03861660048201527f29ddb589b1fb5fc7cf394961c1adf5f8c6454761adf795e67fe149f658abe8956024820152600090731820a4b7618bde71dce8cdc73aab6c95905fad249063aabbb8ca90604401602060405180830381865afa158015613802573d6000803e3d6000fd5b505050506040513d601f19601f820116820180604052508101906138269190614c0e565b90506001600160a01b038116156111b357604051633ad5cbc160e11b81526001600160a01b038216906375ab97829061386d908a908a908a908a908a908a90600401614fca565b600060405180830381600087803b15801561388757600080fd5b505af115801561389b573d6000803e3d6000fd5b5050505050505050505050565b60405163555ddc6560e11b81526001600160a01b03861660048201527fb281fc8c12954d22544db45de3159a39272895b169a852b314f9cc762e44c53b6024820152600090731820a4b7618bde71dce8cdc73aab6c95905fad249063aabbb8ca90604401602060405180830381865afa158015613929573d6000803e3d6000fd5b505050506040513d601f19601f8201168201806040525081019061394d9190614c0e565b90506001600160a01b038116156139c9576040516223de2960e01b81526001600160a01b038216906223de2990613992908b908b908b908b908b908b90600401614fca565b600060405180830381600087803b1580156139ac57600080fd5b505af11580156139c0573d6000803e3d6000fd5b5050505061143a565b811561143a576001600160a01b0386163b1561143a5760405162461bcd60e51b815260206004820152602860248201527f5375706572546f6b656e3a206e6f7420616e20455243373737546f6b656e73526044820152671958da5c1a595b9d60c21b6064820152608401610a59565b6000613ac0837f00000000000000000000000000000000000000000000000000000000000000006001600160a01b031663bbe4fd506040518163ffffffff1660e01b8152600401602060405180830381865afa158015613a9c573d6000803e3d6000fd5b505050506040513d601f19601f820116820180604052508101906107bb9190614a07565b50509050613acd826128db565b811215613b315760405162461bcd60e51b815260206004820152602c60248201527f5375706572666c756964546f6b656e3a206275726e20616d6f756e742065786360448201526b656564732062616c616e636560a01b6064820152608401610a59565b613b3a826128db565b6001600160a01b038416600090815260026020526040902054613b5d9190614995565b6001600160a01b038416600090815260026020526040902055600354613b84908390614b70565b600355505050565b613b95816128db565b6001600160a01b038316600090815260026020526040902054613bb89190614954565b6001600160a01b038316600090815260026020526040902055600354613bdf908290614ad1565b6003555050565b6000613c3b826040518060400160405280602081526020017f5361666545524332303a206c6f772d6c6576656c2063616c6c206661696c6564815250856001600160a01b0316613dfb9092919063ffffffff16565b8051909150156113925780806020019051810190613c5991906148a8565b6113925760405162461bcd60e51b815260206004820152602a60248201527f5361666545524332303a204552433230206f7065726174696f6e20646964206e6044820152691bdd081cdd58d8d9595960b21b6064820152608401610a59565b6000613d1c847f00000000000000000000000000000000000000000000000000000000000000006001600160a01b031663bbe4fd506040518163ffffffff1660e01b8152600401602060405180830381865afa158015613a9c573d6000803e3d6000fd5b5050905081811215613d855760405162461bcd60e51b815260206004820152602c60248201527f5375706572666c756964546f6b656e3a206d6f766520616d6f756e742065786360448201526b656564732062616c616e636560a01b6064820152608401610a59565b6001600160a01b038416600090815260026020526040902054613da9908390614995565b6001600160a01b038086166000908152600260205260408082209390935590851681522054613dd9908390614954565b6001600160a01b03909316600090815260026020526040902092909255505050565b6060610df38484600085856001600160a01b0385163b613e5d5760405162461bcd60e51b815260206004820152601d60248201527f416464726573733a2063616c6c20746f206e6f6e2d636f6e74726163740000006044820152606401610a59565b600080866001600160a01b03168587604051613e799190615024565b60006040518083038185875af1925050503d8060008114613eb6576040519150601f19603f3d011682016040523d82523d6000602084013e613ebb565b606091505b5091509150613ecb828286613ed6565b979650505050505050565b60608315613ee5575081610df6565b825115613ef55782518084602001fd5b8160405162461bcd60e51b8152600401610a599190613ff7565b828054613f1b90614759565b90600052602060002090601f016020900481019282613f3d5760008555613f83565b82601f10613f565782800160ff19823516178555613f83565b82800160010185558215613f83579182015b82811115613f83578235825591602001919060010190613f68565b506129459291505b808211156129455760008155600101613f8b565b60005b83811015613fba578181015183820152602001613fa2565b838111156113395750506000910152565b60008151808452613fe3816020860160208601613f9f565b601f01601f19169290920160200192915050565b602081526000610df66020830184613fcb565b6020808252825182820181905260009190848201906040850190845b8181101561404b5783516001600160a01b031683529284019291840191600101614026565b50909695505050505050565b6001600160a01b03811681146109be57600080fd5b60008083601f84011261407e57600080fd5b5081356001600160401b0381111561409557600080fd5b6020830191508360208260051b85010111156140b057600080fd5b9250929050565b600080600080606085870312156140cd57600080fd5b84356140d881614057565b93506020850135925060408501356001600160401b038111156140fa57600080fd5b6141068782880161406c565b95989497509550505050565b6000806040838503121561412557600080fd5b823561413081614057565b946020939093013593505050565b60006020828403121561415057600080fd5b5035919050565b60008060006040848603121561416c57600080fd5b8335925060208401356001600160401b0381111561418957600080fd5b6141958682870161406c565b9497909650939450505050565b600080600080608085870312156141b857600080fd5b84356141c381614057565b935060208501356141d381614057565b925060408501356141e381614057565b9396929550929360600135925050565b634e487b7160e01b600052604160045260246000fd5b604051601f8201601f191681016001600160401b0381118282101715614231576142316141f3565b604052919050565b600082601f83011261424a57600080fd5b81356001600160401b03811115614263576142636141f3565b614276601f8201601f1916602001614209565b81815284602083860101111561428b57600080fd5b816020850160208301376000918101602001919091529392505050565b80151581146109be57600080fd5b600080600080600080600060e0888a0312156142d157600080fd5b8735965060208801356001600160401b038111156142ee57600080fd5b6142fa8a828b01614239565b965050604088013561430b81614057565b9450606088013561431b816142a8565b9350608088013561432b81614057565b9699959850939692959460a0840135945060c09093013592915050565b60008060006060848603121561435d57600080fd5b833561436881614057565b9250602084013561437881614057565b929592945050506040919091013590565b6000806040838503121561439c57600080fd5b50508035926020909101359150565b6000602082840312156143bd57600080fd5b8135610df681614057565b60008083601f8401126143da57600080fd5b5081356001600160401b038111156143f157600080fd5b6020830191508360208285010111156140b057600080fd5b6000806000806000806080878903121561442257600080fd5b863561442d81614057565b9550602087013560ff8116811461444357600080fd5b945060408701356001600160401b038082111561445f57600080fd5b61446b8a838b016143c8565b9096509450606089013591508082111561448457600080fd5b5061449189828a016143c8565b979a9699509497509295939492505050565b600080600080608085870312156144b957600080fd5b84356144c481614057565b935060208501356144d481614057565b93969395505050506040820135916060013590565b6020808252825182820181905260009190848201906040850190845b8181101561404b57835183529284019291840191600101614505565b6000806000806060858703121561453757600080fd5b843561454281614057565b93506020850135925060408501356001600160401b0381111561456457600080fd5b614106878288016143c8565b600080600080600080600060a0888a03121561458b57600080fd5b873561459681614057565b965060208801356145a681614057565b95506040880135945060608801356001600160401b03808211156145c957600080fd5b6145d58b838c016143c8565b909650945060808a01359150808211156145ee57600080fd5b506145fb8a828b016143c8565b989b979a50959850939692959293505050565b60008060006060848603121561462357600080fd5b833561462e81614057565b95602085013595506040909401359392505050565b60008060006060848603121561465857600080fd5b833561466381614057565b92506020840135915060408401356001600160401b0381111561468557600080fd5b61469186828701614239565b9150509250925092565b600080604083850312156146ae57600080fd5b82356146b981614057565b915060208301356146c981614057565b809150509250929050565b600080600080600080608087890312156146ed57600080fd5b86356146f881614057565b95506020870135945060408701356001600160401b038082111561445f57600080fd5b60008060006040848603121561473057600080fd5b8335925060208401356001600160401b0381111561474d57600080fd5b614195868287016143c8565b600181811c9082168061476d57607f821691505b60208210810361478d57634e487b7160e01b600052602260045260246000fd5b50919050565b6080808252600e908201526d41677265656d656e74537461746560901b60a08201526001600160a01b039384166020820152919092166040820152606081019190915260c00190565b6060808252600d908201526c41677265656d656e744461746160981b60808201526001600160a01b03929092166020830152604082015260a00190565b838152604060208201819052810182905260006001600160fb1b0383111561484057600080fd5b8260051b8085606085013760009201606001918252509392505050565b6020808252602b908201527f5375706572666c756964546f6b656e3a204f6e6c7920686f737420636f6e747260408201526a1858dd08185b1b1bddd95960aa1b606082015260800190565b6000602082840312156148ba57600080fd5b8151610df6816142a8565b60208082526027908201527f5375706572666c756964546f6b656e3a206f6e6c79206c6973746564206167726040820152661959595b595b9d60ca1b606082015260800190565b634e487b7160e01b600052601160045260246000fd5b6000600160ff1b82016149375761493761490c565b5060000390565b634e487b7160e01b600052600160045260246000fd5b600080821280156001600160ff1b03849003851316156149765761497661490c565b600160ff1b839003841281161561498f5761498f61490c565b50500190565b60008083128015600160ff1b8501841216156149b3576149b361490c565b6001600160ff1b03840183138116156149ce576149ce61490c565b50500390565b85815260018060a01b038516602082015283604082015282606082015260a060808201526000613ecb60a0830184613fcb565b600060208284031215614a1957600080fd5b5051919050565b60006020808385031215614a3357600080fd5b82516001600160401b0380821115614a4a57600080fd5b818501915085601f830112614a5e57600080fd5b815181811115614a7057614a706141f3565b8060051b9150614a81848301614209565b8181529183018401918481019088841115614a9b57600080fd5b938501935b83851015614ac55784519250614ab583614057565b8282529385019390850190614aa0565b98975050505050505050565b60008219821115614ae457614ae461490c565b500190565b6020808252601d908201527f5375706572546f6b656e3a206f6e6c792073656c6620616c6c6f776564000000604082015260600190565b60208082526030908201527f5375706572546f6b656e3a2063616c6c6572206973206e6f7420616e206f706560408201526f3930ba37b9103337b9103437b63232b960811b606082015260800190565b600082821015614b8257614b8261490c565b500390565b6000816000190483118215151615614ba157614ba161490c565b500290565b634e487b7160e01b600052603260045260246000fd5b6001600160a01b039384168152919092166020820152604081019190915260600190565b600080600060608486031215614bf557600080fd5b8351925060208401519150604084015190509250925092565b600060208284031215614c2057600080fd5b8151610df681614057565b8051600b81900b8114612a2557600080fd5b60008060008060808587031215614c5357600080fd5b84519350614c6360208601614c2b565b6040860151606090960151949790965092505050565b600060208284031215614c8b57600080fd5b610df682614c2b565b60006001600160ff1b0381841382841380821686840486111615614cba57614cba61490c565b600160ff1b6000871282811687830589121615614cd957614cd961490c565b60008712925087820587128484161615614cf557614cf561490c565b87850587128184161615614d0b57614d0b61490c565b505050929093029392505050565b600060018201614d2b57614d2b61490c565b5060010190565b6020808252603a908201527f5375706572546f6b656e3a20696e666c6174696f6e6172792f6465666c61746960408201527f6f6e61727920746f6b656e73206e6f7420737570706f72746564000000000000606082015260800190565b60208082526026908201527f5375706572546f6b656e3a207472616e736665722066726f6d207a65726f206160408201526564647265737360d01b606082015260800190565b60208082526024908201527f5375706572546f6b656e3a207472616e7366657220746f207a65726f206164646040820152637265737360e01b606082015260800190565b6020808252602e908201527f496e697469616c697a61626c653a20636f6e747261637420697320616c72656160408201526d191e481a5b9a5d1a585b1a5e995960921b606082015260800190565b838152606060208201526000614e806060830185613fcb565b82810360408401526112b28185613fcb565b600060ff821660ff841680821015614eac57614eac61490c565b90039392505050565b600181815b80851115614ef0578160001904821115614ed657614ed661490c565b80851615614ee357918102915b93841c9390800290614eba565b509250929050565b600082614f075750600161098d565b81614f145750600061098d565b8160018114614f2a5760028114614f3457614f50565b600191505061098d565b60ff841115614f4557614f4561490c565b50506001821b61098d565b5060208310610133831016604e8410600b8410161715614f73575081810a61098d565b614f7d8383614eb5565b8060001904821115614f9157614f9161490c565b029392505050565b6000610df660ff841683614ef8565b600082614fc557634e487b7160e01b600052601260045260246000fd5b500490565b6001600160a01b0387811682528681166020830152851660408201526060810184905260c06080820181905260009061500590830185613fcb565b82810360a08401526150178185613fcb565b9998505050505050505050565b60008251615036818460208701613f9f565b919091019291505056fe5375706572546f6b656e3a2064656372656173656420616c6c6f77616e63652062656c6f77207a65726fddf252ad1be2c89b69c2b068fc378daa952ba7f163c4a11628f55a4df523b3ef5375706572546f6b656e3a207472616e7366657220616d6f756e74206578636565647320616c6c6f77616e6365a2646970667358221220628472a1cfaa065ae88e684bc1d01e67f3fd840ad06c1efd798500aa532e368c64736f6c634300080e0033",
    "linkReferences": {},
    "deployedLinkReferences": {}
}