{
    "_format": "hh-sol-artifact-1",
    "contractName": "SuperApp",
    "sourceName": "contracts/SuperApp.sol",
    "abi": [
        {
            "inputs": [
                {
                    "internalType": "contract ISuperfluid",
                    "name": "host",
                    "type": "address"
                }
            ],
            "stateMutability": "payable",
            "type": "constructor"
        },
        {
            "inputs": [],
            "name": "CFA_ID",
            "outputs": [
                {
                    "internalType": "bytes32",
                    "name": "",
                    "type": "bytes32"
                }
            ],
            "stateMutability": "view",
            "type": "function"
        },
        {
            "inputs": [
                {
                    "internalType": "contract ISuperToken",
                    "name": "_superToken",
                    "type": "address"
                },
                {
                    "internalType": "address",
                    "name": "",
                    "type": "address"
                },
                {
                    "internalType": "bytes32",
                    "name": "",
                    "type": "bytes32"
                },
                {
                    "internalType": "bytes",
                    "name": "",
                    "type": "bytes"
                },
                {
                    "internalType": "bytes",
                    "name": "",
                    "type": "bytes"
                },
                {
                    "internalType": "bytes",
                    "name": "_ctx",
                    "type": "bytes"
                }
            ],
            "name": "afterAgreementCreated",
            "outputs": [
                {
                    "internalType": "bytes",
                    "name": "newCtx",
                    "type": "bytes"
                }
            ],
            "stateMutability": "nonpayable",
            "type": "function"
        },
        {
            "inputs": [
                {
                    "internalType": "contract ISuperToken",
                    "name": "_superToken",
                    "type": "address"
                },
                {
                    "internalType": "address",
                    "name": "",
                    "type": "address"
                },
                {
                    "internalType": "bytes32",
                    "name": "",
                    "type": "bytes32"
                },
                {
                    "internalType": "bytes",
                    "name": "",
                    "type": "bytes"
                },
                {
                    "internalType": "bytes",
                    "name": "_cbdata",
                    "type": "bytes"
                },
                {
                    "internalType": "bytes",
                    "name": "_ctx",
                    "type": "bytes"
                }
            ],
            "name": "afterAgreementTerminated",
            "outputs": [
                {
                    "internalType": "bytes",
                    "name": "newCtx",
                    "type": "bytes"
                }
            ],
            "stateMutability": "nonpayable",
            "type": "function"
        },
        {
            "inputs": [
                {
                    "internalType": "contract ISuperToken",
                    "name": "_superToken",
                    "type": "address"
                },
                {
                    "internalType": "address",
                    "name": "",
                    "type": "address"
                },
                {
                    "internalType": "bytes32",
                    "name": "",
                    "type": "bytes32"
                },
                {
                    "internalType": "bytes",
                    "name": "",
                    "type": "bytes"
                },
                {
                    "internalType": "bytes",
                    "name": "_cbdata",
                    "type": "bytes"
                },
                {
                    "internalType": "bytes",
                    "name": "_ctx",
                    "type": "bytes"
                }
            ],
            "name": "afterAgreementUpdated",
            "outputs": [
                {
                    "internalType": "bytes",
                    "name": "newCtx",
                    "type": "bytes"
                }
            ],
            "stateMutability": "nonpayable",
            "type": "function"
        },
        {
            "inputs": [
                {
                    "internalType": "contract ISuperToken",
                    "name": "",
                    "type": "address"
                },
                {
                    "internalType": "address",
                    "name": "",
                    "type": "address"
                },
                {
                    "internalType": "bytes32",
                    "name": "",
                    "type": "bytes32"
                },
                {
                    "internalType": "bytes",
                    "name": "",
                    "type": "bytes"
                },
                {
                    "internalType": "bytes",
                    "name": "",
                    "type": "bytes"
                }
            ],
            "name": "beforeAgreementCreated",
            "outputs": [
                {
                    "internalType": "bytes",
                    "name": "",
                    "type": "bytes"
                }
            ],
            "stateMutability": "view",
            "type": "function"
        },
        {
            "inputs": [
                {
                    "internalType": "contract ISuperToken",
                    "name": "_superToken",
                    "type": "address"
                },
                {
                    "internalType": "address",
                    "name": "",
                    "type": "address"
                },
                {
                    "internalType": "bytes32",
                    "name": "",
                    "type": "bytes32"
                },
                {
                    "internalType": "bytes",
                    "name": "",
                    "type": "bytes"
                },
                {
                    "internalType": "bytes",
                    "name": "_ctx",
                    "type": "bytes"
                }
            ],
            "name": "beforeAgreementTerminated",
            "outputs": [
                {
                    "internalType": "bytes",
                    "name": "",
                    "type": "bytes"
                }
            ],
            "stateMutability": "view",
            "type": "function"
        },
        {
            "inputs": [
                {
                    "internalType": "contract ISuperToken",
                    "name": "_superToken",
                    "type": "address"
                },
                {
                    "internalType": "address",
                    "name": "",
                    "type": "address"
                },
                {
                    "internalType": "bytes32",
                    "name": "",
                    "type": "bytes32"
                },
                {
                    "internalType": "bytes",
                    "name": "",
                    "type": "bytes"
                },
                {
                    "internalType": "bytes",
                    "name": "_ctx",
                    "type": "bytes"
                }
            ],
            "name": "beforeAgreementUpdated",
            "outputs": [
                {
                    "internalType": "bytes",
                    "name": "",
                    "type": "bytes"
                }
            ],
            "stateMutability": "view",
            "type": "function"
        },
        {
            "inputs": [],
            "name": "cfaV1",
            "outputs": [
                {
                    "internalType": "contract ISuperfluid",
                    "name": "host",
                    "type": "address"
                },
                {
                    "internalType": "contract IConstantFlowAgreementV1",
                    "name": "cfa",
                    "type": "address"
                }
            ],
            "stateMutability": "view",
            "type": "function"
        },
        {
            "inputs": [],
            "name": "factory",
            "outputs": [
                {
                    "internalType": "address",
                    "name": "",
                    "type": "address"
                }
            ],
            "stateMutability": "view",
            "type": "function"
        },
        {
            "inputs": [],
            "name": "getFlows",
            "outputs": [
                {
                    "internalType": "uint112",
                    "name": "_flowIn0",
                    "type": "uint112"
                },
                {
                    "internalType": "uint112",
                    "name": "_flowIn1",
                    "type": "uint112"
                },
                {
                    "internalType": "uint32",
                    "name": "_blockTimestampLast",
                    "type": "uint32"
                }
            ],
            "stateMutability": "view",
            "type": "function"
        },
        {
            "inputs": [],
            "name": "getRealTimeCumulatives",
            "outputs": [
                {
                    "internalType": "uint256",
                    "name": "pc0",
                    "type": "uint256"
                },
                {
                    "internalType": "uint256",
                    "name": "pc1",
                    "type": "uint256"
                }
            ],
            "stateMutability": "view",
            "type": "function"
        },
        {
            "inputs": [
                {
                    "internalType": "address",
                    "name": "token",
                    "type": "address"
                },
                {
                    "internalType": "address",
                    "name": "user",
                    "type": "address"
                }
            ],
            "name": "getRealTimeUserCumulativeDelta",
            "outputs": [
                {
                    "internalType": "uint256",
                    "name": "cumulativeDelta",
                    "type": "uint256"
                }
            ],
            "stateMutability": "view",
            "type": "function"
        },
        {
            "inputs": [
                {
                    "internalType": "address",
                    "name": "token",
                    "type": "address"
                },
                {
                    "internalType": "address",
                    "name": "user",
                    "type": "address"
                }
            ],
            "name": "getTwapNetFlowRate",
            "outputs": [
                {
                    "internalType": "int96",
                    "name": "netFlowRate",
                    "type": "int96"
                }
            ],
            "stateMutability": "view",
            "type": "function"
        },
        {
            "inputs": [
                {
                    "internalType": "address",
                    "name": "token",
                    "type": "address"
                },
                {
                    "internalType": "address",
                    "name": "user",
                    "type": "address"
                },
                {
                    "internalType": "uint256",
                    "name": "timestamp",
                    "type": "uint256"
                }
            ],
            "name": "getUserCumulativeDelta",
            "outputs": [
                {
                    "internalType": "uint256",
                    "name": "cumulativeDelta",
                    "type": "uint256"
                }
            ],
            "stateMutability": "view",
            "type": "function"
        },
        {
            "inputs": [
                {
                    "internalType": "address",
                    "name": "user",
                    "type": "address"
                }
            ],
            "name": "getUserPriceCumulatives",
            "outputs": [
                {
                    "internalType": "uint256",
                    "name": "pc0",
                    "type": "uint256"
                },
                {
                    "internalType": "uint256",
                    "name": "pc1",
                    "type": "uint256"
                }
            ],
            "stateMutability": "view",
            "type": "function"
        },
        {
            "inputs": [
                {
                    "internalType": "contract ISuperToken",
                    "name": "_token0",
                    "type": "address"
                },
                {
                    "internalType": "contract ISuperToken",
                    "name": "_token1",
                    "type": "address"
                },
                {
                    "internalType": "uint112",
                    "name": "in0",
                    "type": "uint112"
                },
                {
                    "internalType": "uint112",
                    "name": "in1",
                    "type": "uint112"
                }
            ],
            "name": "initialize",
            "outputs": [],
            "stateMutability": "nonpayable",
            "type": "function"
        },
        {
            "inputs": [],
            "name": "price0CumulativeLast",
            "outputs": [
                {
                    "internalType": "uint256",
                    "name": "",
                    "type": "uint256"
                }
            ],
            "stateMutability": "view",
            "type": "function"
        },
        {
            "inputs": [],
            "name": "price1CumulativeLast",
            "outputs": [
                {
                    "internalType": "uint256",
                    "name": "",
                    "type": "uint256"
                }
            ],
            "stateMutability": "view",
            "type": "function"
        },
        {
            "inputs": [],
            "name": "token0",
            "outputs": [
                {
                    "internalType": "contract ISuperToken",
                    "name": "",
                    "type": "address"
                }
            ],
            "stateMutability": "view",
            "type": "function"
        },
        {
            "inputs": [],
            "name": "token1",
            "outputs": [
                {
                    "internalType": "contract ISuperToken",
                    "name": "",
                    "type": "address"
                }
            ],
            "stateMutability": "view",
            "type": "function"
        }
    ],
    "bytecode": "0x60806040526040516200204f3803806200204f8339810160408190526200002691620001b6565b6001600160a01b0381166200003f576200003f620001dd565b600380546001600160a01b0383166001600160a01b031991821681179092556004805490911633178155604051635b69006f60e11b815263b6d200de91620000ad917fa9214cc96615e0085d3bb077758db69497dc2dce3b2b1e97bc93c3d18d83efd3910190815260200190565b602060405180830381865afa158015620000cb573d6000803e3d6000fd5b505050506040513d601f19601f82011682018060405250810190620000f19190620001b6565b600280546001600160a01b039283166001600160a01b03199182168117909255604080518082018252938516808552602090940183905260008054831685179055600180549092169092179055516315a722b960e31b815264010000000160048201819052919063ad3915c890602401600060405180830381600087803b1580156200017c57600080fd5b505af115801562000191573d6000803e3d6000fd5b505050505050620001f3565b6001600160a01b0381168114620001b357600080fd5b50565b600060208284031215620001c957600080fd5b8151620001d6816200019d565b9392505050565b634e487b7160e01b600052600160045260246000fd5b611e4c80620002036000396000f3fe608060405234801561001057600080fd5b506004361061012c5760003560e01c80635f9e7d77116100ad578063c2a1210911610071578063c2a12109146102ba578063c45a015514610320578063d21220a714610333578063d3112b2e14610346578063d86ed3e51461038057600080fd5b80635f9e7d771461023c5780636afee0391461024f5780636bca12931461028a578063884d1f401461023c5780638fbc914b1461029d57600080fd5b806330d9c915116100f457806330d9c915146101de5780633d85eec9146101f157806353c11f99146102175780635909c0d51461022a5780635a3d54931461023357600080fd5b806302c1c33c146101315780630b6a499d146101575780630dfe16811461016c578063215eed0214610197578063230dbd29146101be575b600080fd5b61014461013f36600461147e565b610393565b6040519081526020015b60405180910390f35b61016a6101653660046114d3565b6103a7565b005b60055461017f906001600160a01b031681565b6040516001600160a01b03909116815260200161014e565b6101447fa9214cc96615e0085d3bb077758db69497dc2dce3b2b1e97bc93c3d18d83efd381565b6101d16101cc366004611574565b610451565b60405161014e919061169b565b6101d16101ec3660046116ae565b610644565b6102046101ff36600461147e565b6106a7565b604051600b9190910b815260200161014e565b6101d1610225366004611574565b610723565b61014460085481565b61014460095481565b6101d161024a3660046116ae565b610904565b600754604080516001600160701b038084168252600160701b8404166020820152600160e01b90920463ffffffff169082015260600161014e565b61014461029836600461174d565b61094e565b6102a5610a06565b6040805192835260208301919091520161014e565b6102a56102c836600461178e565b6001600160a01b03166000908152600a602090815260409182902082516080810184528154600b81810b8352600160601b909104900b9281019290925260018101549282018390526002015460609091018190529091565b60045461017f906001600160a01b031681565b60065461017f906001600160a01b031681565b600054600154610360916001600160a01b03908116911682565b604080516001600160a01b0393841681529290911660208301520161014e565b6101d161038e366004611574565b610a1b565b60006103a083834261094e565b9392505050565b6004546001600160a01b031633146103f25760405162461bcd60e51b81526020600482015260096024820152682327a92124a22222a760b91b60448201526064015b60405180910390fd5b600580546001600160a01b03199081166001600160a01b0396871617909155600680549091169390941692909217909255600780546001600160701b039384166001600160e01b031990911617600160701b9390921692909202179055565b6000546060906001600160a01b0316331461047e5760405162461bcd60e51b81526004016103e9906117ab565b6005546001600160a01b038b8116911614806104a757506006546001600160a01b038b81169116145b6104c35760405162461bcd60e51b81526004016103e9906117ed565b604080516080810182526000808252602082018190529181018290526060810182905290806104f28686610baf565b90925090508282600181111561050a5761050a611824565b9081600181111561051d5761051d611824565b9052506001600160a01b03166020830181905261053c91508c90610c56565b600b0b6040820181905261055286880188611849565b61055c919061187c565b600b0b60608201526005546001600160a01b03908116908c16036105ae57600754606082015160208301516105a9926001600160701b0380821693600160701b9092041691600090610ce2565b6105de565b600754606082015160208301516105de926001600160701b0380821693600160701b909204169160009190610ce2565b61063584848080601f01602080910402602001604051908101604052809392919081815260200183838082843760009201919091525050505060208301516106258e61109a565b60408501516000939291906110d4565b9b9a5050505050505050505050565b60405162461bcd60e51b815260206004820152602f60248201527f556e737570706f727465642063616c6c6261636b202d204265666f726520416760448201526e1c99595b595b9d0810dc99585d1959608a1b60648201526060906084016103e9565b6005546000906001600160a01b03908116908416036106e257506001600160a01b0381166000908152600a6020526040902054600b0b61071d565b6006546001600160a01b039081169084160361071d57506001600160a01b0381166000908152600a6020526040902054600160601b9004600b0b5b92915050565b6000546060906001600160a01b031633146107505760405162461bcd60e51b81526004016103e9906117ab565b6005546001600160a01b038b81169116148061077957506006546001600160a01b038b81169116145b6107955760405162461bcd60e51b81526004016103e9906117ed565b604080516080810182526000808252602082018190529181018290526060810182905290806107c48686610baf565b9092509050828260018111156107dc576107dc611824565b908160018111156107ef576107ef611824565b9052506001600160a01b03166020830181905261080e91508c90610c56565b600b0b6040820181905261082486880188611849565b61082e919061187c565b600b0b60608201526005546001600160a01b03908116908c1603610880576007546060820151602083015161087b926001600160701b0380821693600160701b9092041691600090610ce2565b6108b0565b600754606082015160208301516108b0926001600160701b0380821693600160701b909204169160009190610ce2565b61063584848080601f016020809104026020016040519081016040528093929190818152602001838380828437600092019190915250505060208401513091506108f98f61109a565b6000939291906110f9565b60606000610912848461111e565b905060006109208a83610c56565b6040805160a09290921b60208301528051600c818403018152602c90920190529a9950505050505050505050565b6005546000906001600160a01b03908116908516036109ad576000610972836111a1565b506001600160a01b0385166000908152600a60205260409020600101549091506109a461099f82846118cc565b611286565b925050506103a0565b6006546001600160a01b03908116908516036103a05760006109ce836111a1565b6001600160a01b0386166000908152600a602052604090206002015490925090506109fc61099f82846118cc565b9695505050505050565b600080610a12426111a1565b90939092509050565b6000546060906001600160a01b03163314610a485760405162461bcd60e51b81526004016103e9906117ab565b6005546001600160a01b038b811691161480610a7157506006546001600160a01b038b81169116145b610a8d5760405162461bcd60e51b81526004016103e9906117ed565b604080516080810182526000808252602082018190529181018290526060810191909152610abb848461111e565b6001600160a01b031660208201819052610ad6908c90610c56565b600b0b60408201526005546001600160a01b03908116908c1603610b285760075460408201516020830151610b23926001600160701b0380821693600160701b9092041691600090610ce2565b610b58565b60075460408201516020830151610b58926001600160701b0380821693600160701b909204169160009190610ce2565b61063584848080601f0160208091040260200160405190810160405280939291908181526020018383808284376000920191909152505050506020830151610b9f8e61109a565b6040850151600093929190611296565b600354604051631fb6491d60e11b8152600091829182916001600160a01b031690633f6c923a90610be690889088906004016118e3565b600060405180830381865afa158015610c03573d6000803e3d6000fd5b505050506040513d6000823e601f3d908101601f19168201604052610c2b9190810190611a04565b90508060a00151806020019051810190610c459190611b0b565b925080606001519150509250929050565b600254604051631cd43d1160e31b81526001600160a01b0384811660048301528381166024830152306044830152600092839291169063e6a1e88890606401608060405180830381865afa158015610cb2573d6000803e3d6000fd5b505050506040513d601f19601f82011682018060405250810190610cd69190611b2c565b50909695505050505050565b6000610cf364010000000042611b80565b600754909150600090610d1390600160e01b900463ffffffff1683611b94565b6007549091506001600160701b031615801590610d415750600754600160701b90046001600160701b031615155b15610f815760008163ffffffff1611610d58575060005b60075463ffffffff821690610d94906001600160701b0380821691610d8591600160701b909104166112bb565b6001600160e01b0316906112d4565b6001600160e01b0316610da79190611bb9565b60086000828254610db89190611bd8565b909155505060075463ffffffff821690610de8906001600160701b03600160701b8204811691610d8591166112bb565b6001600160e01b0316610dfb9190611bb9565b60096000828254610e0c9190611bd8565b9091555050600b85900b15610ed2576009546001600160a01b0384166000908152600a6020526040902060028101919091558054869190600c90610e5b908490600160601b9004600b0b611bf0565b82546001600160601b039182166101009390930a928302919092021990911617905550306000908152600a602052604090208054869190600c90610eaa908490600160601b9004600b0b61187c565b92506101000a8154816001600160601b030219169083600b0b6001600160601b031602179055505b83600b0b600014610f81576008546001600160a01b0384166000908152600a602052604081206001810192909255815486929190610f14908490600b0b611bf0565b82546001600160601b039182166101009390930a928302919092021990911617905550306000908152600a602052604081208054869290610f59908490600b0b61187c565b92506101000a8154816001600160601b030219169083600b0b6001600160601b031602179055505b600085600b0b12610fb157600754610fac906001600160601b038716906001600160701b0316611c3f565b610fd1565b600754610fd1906001600160601b038716906001600160701b0316611c6a565b600780546dffffffffffffffffffffffffffff19166001600160701b03929092169190911790556000600b85900b126110305760075461102b906001600160601b03861690600160701b90046001600160701b0316611c3f565b611057565b600754611057906001600160601b03861690600160701b90046001600160701b0316611c6a565b6007805463ffffffff909416600160e01b026001600160e01b036001600160701b03938416600160701b0216929094169190911792909217909155505050505050565b6005546000906001600160a01b038381169116146110c3576005546001600160a01b031661071d565b50506006546001600160a01b031690565b6040805160008152602081019091526060906109fc90879087908790879087906112e9565b6040805160008152602081019091526060906109fc90879087908790879087906113f0565b600354604051631fb6491d60e11b81526000916001600160a01b031690633f6c923a9061115190869086906004016118e3565b600060405180830381865afa15801561116e573d6000803e3d6000fd5b505050506040513d6000823e601f3d908101601f191682016040526111969190810190611a04565b606001519392505050565b600080806111b464010000000085611b80565b6007549091506000906111d490600160e01b900463ffffffff1683611b94565b60075460085460095490965094509091506001600160701b0380821691600160701b900416811580159061121157506000816001600160701b0316115b1561127d578263ffffffff1661122a83610d85846112bb565b6001600160e01b031661123d9190611bb9565b6112479087611bd8565b95508263ffffffff1661125d82610d85856112bb565b6001600160e01b03166112709190611bb9565b61127a9086611bd8565b94505b50505050915091565b600061071d600160701b83611c8a565b6040805160008152602081019091526060906109fc9087908790879087908790611439565b600061071d600160701b6001600160701b038416611c9e565b60006103a06001600160701b03831684611ccd565b855460018701546060916001600160a01b0390811691634329d2939116806350209a62888a8960005b6040519080825280601f01601f19166020018201604052801561133c576020820181803683370190505b506040516024016113509493929190611cf3565b60408051808303601f1901815291815260208201805160e094851b6001600160e01b03909116179052519185901b6001600160e01b031916825261139d9392509087908c90600401611d29565b6000604051808303816000875af11580156113bc573d6000803e3d6000fd5b505050506040513d6000823e601f3d908101601f191682016040526113e49190810190611d7e565b50979650505050505050565b855460018701546040805160008152602081019091526060926001600160a01b0390811692634329d29392911690819063b4b333c6906113509089908c908c9060448101611de2565b855460018701546060916001600160a01b0390811691634329d2939116806362fc305e888a896000611312565b6001600160a01b038116811461147b57600080fd5b50565b6000806040838503121561149157600080fd5b823561149c81611466565b915060208301356114ac81611466565b809150509250929050565b80356001600160701b03811681146114ce57600080fd5b919050565b600080600080608085870312156114e957600080fd5b84356114f481611466565b9350602085013561150481611466565b9250611512604086016114b7565b9150611520606086016114b7565b905092959194509250565b60008083601f84011261153d57600080fd5b50813567ffffffffffffffff81111561155557600080fd5b60208301915083602082850101111561156d57600080fd5b9250929050565b600080600080600080600080600060c08a8c03121561159257600080fd5b893561159d81611466565b985060208a01356115ad81611466565b975060408a0135965060608a013567ffffffffffffffff808211156115d157600080fd5b6115dd8d838e0161152b565b909850965060808c01359150808211156115f657600080fd5b6116028d838e0161152b565b909650945060a08c013591508082111561161b57600080fd5b506116288c828d0161152b565b915080935050809150509295985092959850929598565b60005b8381101561165a578181015183820152602001611642565b83811115611669576000848401525b50505050565b6000815180845261168781602086016020860161163f565b601f01601f19169290920160200192915050565b6020815260006103a0602083018461166f565b600080600080600080600060a0888a0312156116c957600080fd5b87356116d481611466565b965060208801356116e481611466565b955060408801359450606088013567ffffffffffffffff8082111561170857600080fd5b6117148b838c0161152b565b909650945060808a013591508082111561172d57600080fd5b5061173a8a828b0161152b565b989b979a50959850939692959293505050565b60008060006060848603121561176257600080fd5b833561176d81611466565b9250602084013561177d81611466565b929592945050506040919091013590565b6000602082840312156117a057600080fd5b81356103a081611466565b60208082526022908201527f5265646972656374416c6c3a20737570706f7274206f6e6c79206f6e6520686f6040820152611cdd60f21b606082015260800190565b6020808252601e908201527f5265646972656374416c6c3a20746f6b656e206e6f7420696e20706f6f6c0000604082015260600190565b634e487b7160e01b600052602160045260246000fd5b80600b0b811461147b57600080fd5b60006020828403121561185b57600080fd5b81356103a08161183a565b634e487b7160e01b600052601160045260246000fd5b600081600b0b83600b0b600081128160016001605f1b0319018312811516156118a7576118a7611866565b8160016001605f1b030183138116156118c2576118c2611866565b5090039392505050565b6000828210156118de576118de611866565b500390565b60208152816020820152818360408301376000818301604090810191909152601f909201601f19160101919050565b634e487b7160e01b600052604160045260246000fd5b604051610160810167ffffffffffffffff8111828210171561194c5761194c611912565b60405290565b805160ff811681146114ce57600080fd5b80516114ce81611466565b80516001600160e01b0319811681146114ce57600080fd5b600082601f83011261199757600080fd5b815167ffffffffffffffff808211156119b2576119b2611912565b604051601f8301601f19908116603f011681019082821181831017156119da576119da611912565b816040528381528660208588010111156119f357600080fd5b6109fc84602083016020890161163f565b600060208284031215611a1657600080fd5b815167ffffffffffffffff80821115611a2e57600080fd5b908301906101608286031215611a4357600080fd5b611a4b611928565b611a5483611952565b8152611a6260208401611952565b602082015260408301516040820152611a7d60608401611963565b6060820152611a8e6080840161196e565b608082015260a083015182811115611aa557600080fd5b611ab187828601611986565b60a08301525060c083015160c082015260e083015160e0820152610100915081830151828201526101209150611ae8828401611963565b828201526101409150611afc828401611963565b91810191909152949350505050565b600060208284031215611b1d57600080fd5b8151600281106103a057600080fd5b60008060008060808587031215611b4257600080fd5b845193506020850151611b548161183a565b6040860151606090960151949790965092505050565b634e487b7160e01b600052601260045260246000fd5b600082611b8f57611b8f611b6a565b500690565b600063ffffffff83811690831681811015611bb157611bb1611866565b039392505050565b6000816000190483118215151615611bd357611bd3611866565b500290565b60008219821115611beb57611beb611866565b500190565b600081600b0b83600b0b600082128260016001605f1b0303821381151615611c1a57611c1a611866565b8260016001605f1b0319038212811615611c3657611c36611866565b50019392505050565b60006001600160701b03808316818516808303821115611c6157611c61611866565b01949350505050565b60006001600160701b0383811690831681811015611bb157611bb1611866565b600082611c9957611c99611b6a565b500490565b60006001600160e01b0382811684821681151582840482111615611cc457611cc4611866565b02949350505050565b60006001600160e01b0383811680611ce757611ce7611b6a565b92169190910492915050565b6001600160a01b03858116825284166020820152600b83900b60408201526080606082018190526000906109fc9083018461166f565b6001600160a01b0385168152608060208201819052600090611d4d9083018661166f565b8281036040840152611d5f818661166f565b90508281036060840152611d73818561166f565b979650505050505050565b60008060408385031215611d9157600080fd5b825167ffffffffffffffff80821115611da957600080fd5b611db586838701611986565b93506020850151915080821115611dcb57600080fd5b50611dd885828601611986565b9150509250929050565b6001600160a01b0385811682528481166020830152831660408201526080606082018190526000906109fc9083018461166f56fea26469706673582212208b87f1e37206105994c379de53ec3e597efc68acb1613aaf0a3cf5b71d346f5f64736f6c634300080e0033",
    "linkReferences": {},
    "deployedLinkReferences": {}
}